:020000040800F2
:10000000E0050020F1010008EF2400085522000857
:10001000ED2400089D030008932B00080000000059
:10002000000000000000000000000000F3240008B1
:100030009F03000800000000F1240008F5240008D8
:100040000B0200080B0200080B0200080B0200085C
:100050000B0200080B0200080B0200080B0200084C
:100060000B0200080B0200080B0200080B0200083C
:100070000B0200080B0200080B0200080B0200082C
:100080000B020008000000000B0200080B02000831
:100090000B0200080B0200080B0200080B0200080C
:1000A0000B0200080B0200080B0200080B020008FC
:1000B000712500080B0200080B0200080B02000863
:1000C0000B0200080B0200080B0200080B020008DC
:1000D0000B0200080B0200080B0200080B020008CC
:1000E0000B0200080B0200080B0200080B020008BC
:1000F0000B0200080B0200080B02000800000000C1
:10010000000000000B020008000000000B020008C5
:100110000B020008000000000B0200080B020008A0
:100120000B0200080B0200080B0200080B0200087B
:100130000B02000800000000000000000B02000895
:100140000B0200080B020008000000000000000085
:10015000000000000000000000000000000000009F
:100160000000000000000000000000000B0200087A
:100170000B0200080000000000000000000000006A
:10018000000000000B02000800000000000000005A
:10019000000000000000000000000000000000005F
:1001A00000000000000000000B0200080B02000825
:1001B0000B0200080B0200080B0200080000000000
:1001C000000000000B02000800000000000000001A
:1001D0000B0200080B020008DFF810D000F092F8C4
:1001E00000480047612D0008AFF30080E0050020C3
:1001F0000648804706480047FEE7FEE7FEE7FEE7C1
:10020000FEE7FEE7FEE7FEE7FEE7FEE76125000802
:10021000D90100082DE9F05F0546002092469B4673
:1002200088460646814640241BE02846414647460C
:10023000224600F057F853465A46C01A914110D34F
:1002400011461846224600F03EF82D1A67EB0108C9
:100250004F4622460120002100F035F817EB000937
:100260004E41201EA4F10104DFDC484631462A46F7
:100270004346BDE8F09FD2B201E000F8012B491ED1
:10028000FBD270470022F6E710B513460A46044633
:100290001946FFF7F0FF204610BD30B50B4601466A
:1002A00000202022012409E021FA02F59D4205D315
:1002B00003FA02F5491B04FA02F52844151EA2F1BF
:1002C0000102F1DC30BD202A04DB203A00FA02F101
:1002D000002070479140C2F1200320FA03F3194334
:1002E00090407047202A04DB203A21FA02F00021D6
:1002F000704721FA02F3D040C2F120029140084336
:1003000019467047064C074D06E0E06840F00103CF
:1003100094E8070098471034AC42F6D3FFF760FF2B
:100320000C2E00082C2E000870B504460068816869
:1003300011F0010F2DD18168174A11421AD181683D
:10034000D5432940491C816000F0B2FD06461BE000
:10035000816811F0010F03D181682940491C816037
:1003600000F0A6FD801B02280ED920680068C0435B
:10037000C00709D0E06D40F01000E065206E40F04D
:1003800001002066012070BD20680168C943C907CB
:10039000DED1002070BD00003F000080FEE7704706
:1003A00072B6FEE72DE9F047044690F858009CB07D
:1003B0000E464FF00009012815D0012084F858009E
:1003C00000251795189520684FF0A04840450ED19C
:1003D000284F0097384601F04CFF8246206801F014
:1003E00048FF60B10EE002201CB0BDE8F087E06D70
:1003F00040F02000E06584F858500120F4E7BAF19D
:10040000000F09D0E06D40F02000E0654FF00109D9
:1004100084F858504846E7E71748326840F61F719D
:10042000002A826822F4604216D094F8383042EAFA
:10043000433273681A438260D8F80820BB6802F020
:10044000010203F001031A43E2D1B36832681A4390
:1004500083688B431A430BE08260D8F80820BB689E
:1004600002F0010203F001031A43D1D182688A43EA
:100470008260CDE700010050000300502DE9F84FE5
:1004800000270446009790F85800DFF8D8930D46EF
:10049000B846012811D0012684F85860206801F080
:1004A000E4FE60B1E06D40F02000E0655FF0010720
:1004B00084F858803846BDE8F88F0220FBE7D5E97C
:1004C00000210C23206803EA91131844036B01F008
:1004D0001F014FF01F0C0CFA01FCC2F3846223EAE7
:1004E0000C038A4013430363206801F0BEFE82467A
:1004F000206801F0B6FE5AEA00003CD1AA682968DB
:100500002068B2F1004F37D001F0B7FE2068416992
:1005100021F00041416120686969C268C2F3C102EB
:10052000520091402A69042A31D000EB82002B68E6
:10053000026EDFF834C303F0F84302EA0C020B4307
:100540001A4342F00041016620682A69A96900EB5C
:100550008200026E22F080720A430266297F2268BE
:100560002869012910D0002102EB8000026E22F0E0
:1005700000720A4302667DE0002201F07EFE2068E0
:10058000416941F00041C5E74FF00071ECE70021FF
:1005900001F061FE400320684FF0000172D001F0CD
:1005A0005AFE90FAA0F0B0FA80F1286842036ED0AB
:1005B00090FAA0F0B0FA80F0814204D100221146F6
:1005C000206801F069FE0121206801F044FE40032B
:1005D00020684FF001015DD001F03DFE90FAA0F0DF
:1005E000B0FA80F12868420359D090FAA0F0B0FA2E
:1005F00080F0814204D100220121206801F04CFEEC
:100600000221206801F027FE400320684FF002011C
:1006100048D001F020FE90FAA0F0B0FA80F12868EE
:10062000420344D090FAA0F0B0FA80F0814204D1A5
:1006300000220221206801F02FFE0321206801F032
:100640000AFE400320684FF0030133D001F003FE9F
:1006500090FAA0F0B0FA80F1286842032FD090FA07
:10066000A0F0B0FA80F0814204D10022032120687A
:1006700001F012FE2068816811F0010F22D0A8E07D
:1006800000E004E001F0E7FDC0F384618DE7C0F312
:10069000846091E701F0DFFDC0F38461A2E7C0F35D
:1006A0008460A6E701F0D7FDC0F38461B7E7C0F32B
:1006B0008460BBE701F0CFFDC0F38461CCE7C0F3F9
:1006C0008460D0E7EB6829684B4550F8B03FC1F330
:1006D000120101D10B4300E08B430360E8684845F9
:1006E00077D1286841031CD090FAA0F1B1FA81F1CA
:1006F000491C01F01F0109294FEA403132D8002975
:1007000012D000BF90FAA0F1B1FA81F101F101011C
:1007100001F01F0106FA01F609D100BFC0F38461A0
:1007200009E0C0F38461E3E7C0F38461EEE790FA87
:10073000A0F1B1FA81F101F1010101F01F0146EAD6
:10074000816102D1C0F3846003E090FAA0F0B0FAB6
:1007500080F000F1010000F01F0000EB400041EAD2
:10076000005132E000290ED090FAA0F1B1FA81F1E7
:1007700001F1010101F01F0106FA01F606D100BFE7
:10078000C0F3846106E0C0F38461F1E790FAA0F160
:10079000B1FA81F101F1010101F01F0146EA816125
:1007A00002D1C0F3846003E090FAA0F0B0FA80F0C8
:1007B00000F1010000F01F002C4A00EB400002EBAA
:1007C000005041EA000141F00071AA68206801F080
:1007D00054FD27482A6802423FF46AAE25488168E2
:1007E000254B01F0E0719A4202D0244B9A421CD171
:1007F0000B021AD42268B2F1A04F7FF459AE82687E
:1008000041F4000122F0E0720A4382601C481D4955
:100810000068B0FBF1F0401C00EB4000800000E0FD
:10082000401E00900028FBD142E6174D174BAA420C
:1008300007D1CD0105D422689A42F5D041F08071EC
:1008400009E0134DAA42EFD14A02EDD422689A4240
:10085000EAD041F48001826822F0E0720A438260AB
:1008600026E6000000007F4000F0FF03000020FEAD
:100870000000088000030050000021C31000C09059
:1008800020000020400D0300000052C7000100506E
:10089000000084CBF8B54FF0000504002E4600950B
:1008A00002D0E06D10B107E00120F8BD204600F055
:1008B000EFF8266684F8586020688168C1F34071BB
:1008C00019B181686A4A1140816020688168C1F36A
:1008D000007189B98168674A114041F08051816097
:1008E000654866490068B0FBF1F04000801C00E0FC
:1008F000401E00900028FBD120688168C1F3007180
:1009000041B9E16D41F01001E165216E41F0010155
:100910002166012501F0A9FCE16DC90600D430B1C2
:10092000E06D40F01000E06501252846F8BDE06D5F
:1009300020F4807040F00200E0652068806810F0CC
:10094000010F11D14FF0A04080684D4900F0010027
:10095000896801F00101084306D14A48616882684C
:1009600022F47C120A438260E168E06B627F0843F4
:10097000A16841EA4231084394F8241040EA01405A
:10098000012904D1218D404A02EB41410843E16A2B
:1009900029B101F47871226B014342EA0100216818
:1009A000CA683A4B1A400243CA6020680169626B08
:1009B00021F0406111430161206801F056FC0646B8
:1009C000206801F04EFC30432ED1207F94F838107F
:1009D000800340EA41022068C16844F2020399435F
:1009E0001143C16020690028206801690AD041F4E0
:1009F00080310161206850F8C01F22696FF30D013A
:100A0000114307E021F480310161206850F8C01FD4
:100A10006FF30D01016094F8400001280CD02068AC
:100A2000016921F001010161606901282068016B01
:100A300021F00F0111D013E0D4E911010843D4E9EA
:100A400013121143084321680A6940F2FC739A4368
:100A5000104340F001000861E6E7226A521E11438C
:100A60000163E06D20F0020040F00100E0655CE70A
:100A7000C0FFFF5FC0FFFF7F20000020400D03008C
:100A800000010050000300500000FEFF0740F0FF8F
:100A90002DE9F04397B00446142111A8FFF7F2FBAB
:100AA00044216846FFF7EEFB4FF0005021682D4DC2
:100AB0000327DFF8B49086132C4C4FF00008B1F1F7
:100AC000A04F10D02A4A914248D100960F90684614
:100AD00000F0ECFA08B1FFF763FC2868401C2860BE
:100AE000012824D02BE000960F90684600F0DEFA33
:100AF00008B1FFF755FC2868401C2860012807D181
:100B0000E06C40F40050E064E06C00F4005016909B
:100B1000E06C40F00200E064E06C11A900F002001B
:100B200016904FF4805081E88101484614E0E06C53
:100B300040F40050E064E06C00F400501690E06C6B
:100B400040F00200E064E06C11AA00F00200169090
:100B500082E8C00111A9484600F086F817B0BDE848
:100B6000F083000010000020000400480010024044
:100B7000000100502DE9F04104463848806800F03B
:100B80001F05206801F071FB18B102210846BDE87D
:100B9000F08194F8580001280CD0012084F8580006
:100BA0002046FFF7C1FB01004FF0000304D084F89A
:100BB0005830EBE70220EAE7E06D40F6016290432F
:100BC00040F48070E065264A20684FF0A0469042CD
:100BD00001D1374600E00746874200D01DB9E76DD6
:100BE00027F48017E765E76DFF0404D5276E27F02B
:100BF0000607276600E023661C27076084F8583044
:100C00002068904201D1334600E00346834215D06C
:100C1000A5B1052D12D0092D10D0E36D43F480133A
:100C2000E365904200D13046C0688001AED5E06DEA
:100C300020F4005040F48050E065A7E7C2689201BC
:100C400005D5E26D22F4005242F48052E2658268DA
:100C5000044B1A40121D826098E700000003005008
:100C600000010050C0FFFF7F2DE9F04FDFF8209218
:100C7000002301260324A9F1040B85B00F2709F1F5
:100C8000040AABF1040EFAE006FA03F52A407CD020
:100C900091F804C00CF0030CBCF1010F02D0BCF1C0
:100CA000020F26D1D0F808C0CDF800C04FEA430C9F
:100CB00004FA0CF8CDF810C0DDF800C02CEA080CDE
:100CC000CDF800C0D1F80C80DDF810C008FA0CF89F
:100CD000DDF800C048EA0C08C0F80880D0F804C06D
:100CE0002CEA050C0D79C5F300159D4045EA0C056D
:100CF00045600D79ED43AD070ED0C5684FEA430856
:100D000004FA08FC25EA0C05D1F808C00CFA08FC26
:100D10004CEA050CC0F80CC00D7905F00305022D56
:100D200016D1DD0800EB850CCDF808C0DCF820807A
:100D30005D074FEAD56C07FA0CF528EA05080D693E
:100D400005FA0CF5DDF808C045EA0805CCF8205096
:100D500005684FEA430CCDF808C004FA0CFC25EAFC
:100D60000C0591F804C00CF00308DDF808C008FA7F
:100D70000CF848EA0508C0F800804D6815F4403FBB
:100D80007CD0444DD5F860C000E077E04CF0010C19
:100D9000C5F860C02D6E23F0030C05F00105009529
:100DA0003D4D65440295AD684FEA837C4FEA1C785F
:100DB00007FA08FC25EA0C05B0F1904F06D0DFF8E1
:100DC000DCC0604505D14FF0010C20E04FF0000C75
:100DD0001DE0DFF8CCC0604502D14FF0020C16E0F8
:100DE000DFF8C0C0604502D14FF0030C0FE0DFF820
:100DF000B8C0604502D14FF0040C08E0DFF8ACC089
:100E0000604502D14FF0050C01E04FF0060C0CFAE2
:100E100008FC4CEA050C029DC5F808C0D9F8005042
:100E2000CC46D1F8048095435FEAC82800D5154325
:100E3000CCF80050DAF80050D446D1F8048095433D
:100E40005FEA882800D51543CCF80050DBF8005045
:100E5000DC46D1F8048095435FEA883800D5154315
:100E6000CCF80050DEF80050F446D1F804809543E9
:100E70005FEAC83800D51543CCF800505B1C0A68FF
:100E800032FA03F57FF400AF05B0BDE8F08F000043
:100E90000804014000100240000001400004004826
:100EA00000080048000C00480010004800140048EA
:100EB00001488068704700001400002002488168E3
:100EC00042681144816070471400002010B500246E
:100ED000032000F073F80F2000F008F808B1012497
:100EE00001E000F025F8204610BD000070B50E4E60
:100EF00005460024706898B14FF47A71B1FBF0F0A8
:100F00000A490968B1FBF0F000F064FD40B9102D0A
:100F100006D200222946501E00F030F8356000E06D
:100F20000124204670BD0000140000202000002095
:100F30000A4882B0016E41F001010166016E01F0C4
:100F400001010091816D41F080518165806D00F05B
:100F50008050009002B000F0A1B8000000100240E4
:100F6000002809DB00F01F020121914040098000A8
:100F700000F1E020C0F8001170470000F0B40E4B03
:100F80001B680C46C3F30223C3F10705042D00D9E7
:100F90000425191D072901D2002300E0DB1E0126CC
:100FA00006FA05F1491E214099409E40761E1640E2
:100FB0003143F0BC01F0FEBD0CED00E0064900F04D
:100FC000070208684FF6FF03184040EA0220034A70
:100FD00010430860704700000CED00E00000FA05C7
:100FE0002B492C4B0A6832214A432B4940B1B0F5BA
:100FF000007F086829D020F4C06040F480602CE0B5
:101000000868C0F34120022804D051F8800F20F472
:10101000807022E0D1F8800020F48070C1F8800058
:10102000086820F4C06040F400700860B2FBF3F080
:10103000401C00E0401E4A69520501D50028F9D144
:10104000486940050AD503207047C0F341200228B3
:1010500006D051F8800F40F480700860002070477F
:10106000D1F8800040F48070C1F88000086820F456
:10107000C06040F400700860B2FBF3F0401C00E078
:10108000401E4A695205DBD50028F9D1D8E7000097
:101090002000002040420F0000700040024881689C
:1010A00041F4804181607047007000402DE9F843B1
:1010B0000446006800269D4D00035ED5A86D0027FC
:1010C000C00008D4A86D40F08050A865A86D012725
:1010D00000F080500090DFF85892D9F8001041F4E9
:1010E0008071C9F80010FFF7E3FE804606E000BFFC
:1010F000FFF7DEFEA0EB080002282BD8D9F800008D
:10110000C005F5D5D5F8900010F4407014D0216CCE
:10111000814211D0D5F89000D5F8901020F440709D
:1011200041F48031C5F89010D5F8901021F4803149
:10113000C5F89010C5F89000C00711D0FFF7B8FEB1
:10114000804641F2883907E0FFF7B2FEA0EB0801C4
:10115000494501D903260BE0D5F890008007F3D567
:10116000D5F89000216C20F440700843C5F8900039
:101170001FB1A86D20F08050A8652078C00707D067
:10118000D5F88800616820F003000843C5F888009E
:101190002078800707D5D5F88800A16820F00C00DA
:1011A0000843C5F888002078400707D5D5F888009F
:1011B000E16820F030000843C5F888002078000777
:1011C00007D5D5F88800216920F0C0000843C5F88C
:1011D00088002078800607D5D5F88800616920F45A
:1011E00040600843C5F888002078400607D5D5F848
:1011F0008800A16920F440500843C5F88800207891
:10120000000607D5D5F88800E16920F4404008437E
:10121000C5F888002088C00507D5D5F88800216A60
:1012200020F440300843C5F888002088800507D5A1
:10123000D5F88800616A20F440200843C5F888008A
:10124000208840050FD5D5F88800A16A20F4401009
:101250000843C5F88800A06AB0F5801F03D1E8688C
:1012600040F48010E860208800050FD5D5F888008C
:10127000E16A20F440000843C5F88800E06AB0F550
:10128000800F03D1E86840F48010E8602088C00433
:101290000FD5D5F88800216B20F040700843C5F8C1
:1012A0008800206BB0F1807F03D1E86840F48010A3
:1012B000E86020884FF0006180040ED5D5F88800E2
:1012C000626B20F040601043C5F88800606B884274
:1012D00003D1E86840F48010E860208840040ED50F
:1012E000D5F88800A26B20F040601043C5F8880054
:1012F000A06B884203D1E86840F48010E860208841
:1013000000040FD5D5F88800E16B20F04050084369
:10131000C5F88800E06BB0F1805F03D1E86840F465
:101320008030E8603046BDE8F883000000100240DD
:10133000007000402DE9F0470E4605004FF0000711
:1013400025D0DFF8AC81D8F8000000F00F00B042E3
:101350000CD2D8F8001021F00F013143C8F800106A
:10136000D8F8000000F00F00B04210D12968614C9D
:10137000C80741F2883A5AD06868DFF87C910328A0
:1013800008D0022820682DD0400500282CDB012041
:10139000BDE8F08720688001F9D5E06800F003021D
:1013A000E068C0F30310401C032A19D0534A00BF61
:1013B000B2FBF0F0E268C2F306225043E268C2F3E7
:1013C0004162521C5200B0FBF2F0484517D9A068A8
:1013D00010F0F00F0CD0880711D5A86840B10EE0CE
:1013E000474AE5E78003D0E700F0B6F8484506D95C
:1013F000A06820F0F00040F08000A0608027A06886
:10140000696820F003000843A060FFF751FD8146A2
:1014100006E000BFFFF74CFDA0EB090151453AD8AB
:10142000A068696800F00C00B0EB810FF2D1286869
:10143000810714D5400703D5A06840F4E060A060A0
:101440002878000705D5A06820F4605040F4E060DB
:10145000A060A068A96820F0F000084304E0802F95
:1014600003D1A06820F0F000A060D8F8001040463A
:1014700001F00F01B14216D9016821F00F0131438B
:101480000160FFF715FD074607E000BFFFF710FDFD
:10149000C11B514501D903207AE7D8F8000000F0BC
:1014A0000F00B042F2D12878400705D5A068E9685E
:1014B00020F4E0600843A0602878000706D5A06803
:1014C000296920F4605040EAC100A06000F044F8AF
:1014D000A1680C4AC1F30311515C01F01F01C8401F
:1014E0000949086009480068BDE8F047FFF7FEBCFD
:1014F000002002400010024000B4C4040024F400A4
:1015000000366E01F42D0008200000201400002099
:101510000548064900688968054AC1F30221515C03
:1015200001F01F01C8407047200000200010024059
:10153000042E00080548064900688968054AC1F379
:10154000C221515C01F01F01C840704720000020FB
:1015500000100240042E0008184910B58868C0F336
:1015600081021748012A0BD08A68164BC2F3810208
:10157000022A06D08A68C2F38102032A03D000201F
:1015800010BD184610BDCA6802F00304CA68C2F351
:101590000312521C032C02D0B0FBF2F001E0B3FBAB
:1015A000F2F0CA68C968C2F306225043C1F3416130
:1015B000491C4900B0FBF1F010BD000000100240D2
:1015C0000024F40000366E012DE9F84304007AD0BF
:1015D0002078FA4DC00747D0A868E96800F00C00F1
:1015E00001F003010C2802D0082817D001E00329DC
:1015F00014D06068B0F5803F17D0B0F5A02F2868F0
:1016000017D020F480302860286820F480202860DB
:101610006068E0B1FFF74CFC064614E028688003E0
:1016200022D560680028D2D01EE0286840F48030BF
:10163000EDE740F480202860F7E700BFFFF738FCB3
:10164000801B642870D828688003F7D50CE0FFF76A
:101650002FFC064605E000BFFFF72AFC801B64282C
:10166000F0D828688003F7D4207880074CD5A86884
:10167000E96800F00C0001F003010C2802D00428F6
:101680000DD001E002290AD0E068002828682BD09C
:1016900040F480702860FFF70BFC064619E02868CC
:1016A000400502D5E068002891D06868217C20F0D0
:1016B000FE4040EA01606860C1480068FFF716FC20
:1016C000002800D120E076E1FFF7F2FB801B022822
:1016D000B8D828684005F7D56868217C20F0FE401E
:1016E00040EA016068600FE020F480702860FFF736
:1016F000DFFB064605E000BFFFF7DAFB801B022890
:10170000A0D828684005F7D42078000729D560695B
:101710000028D5F8940013D040F00100C5F89400DB
:10172000FFF7C6FB064606E090E000BFFFF7C0FBF0
:10173000801B022886D8D5F894008007F6D510E0E3
:1017400020F00100C5F89400FFF7B2FB064604E064
:10175000FFF7AEFB801B022878D8D5F894008007ED
:10176000F6D42078400761D5A86D0026C00008D4C3
:10177000A86D40F08050A865A86D012600F080504B
:10178000009090480168C90511D40168804641F471
:1017900080710160FFF78CFB074604E0FFF788FBD0
:1017A000C01B022852D8D8F80000C005F6D5A068A2
:1017B000012815D00528D5F8900016D020F001009A
:1017C000C5F89000D5F8900020F00400C5F890000E
:1017D000A06841F28838B8B1FFF76AFB07460EE00F
:1017E000D5F8900040F00100F0E740F00400C5F8A3
:1017F0009000F5E7FFF75CFBC11B414526D8D5F803
:1018000090008007F6D50CE0FFF752FB074604E096
:10181000FFF74EFBC11B414518D8D5F89000800753
:10182000F6D41EB1A86D20F08050A86520788006FF
:1018300029D5A0690028D5F8980013D040F0010000
:10184000C5F89800FFF734FB064606E077E000BFD6
:10185000FFF72EFB801B022877D8D5F89800800769
:10186000F6D510E020F00100C5F89800FFF720FB46
:10187000064604E0FFF71CFB801B022865D8D5F85C
:1018800098008007F6D4E069F0B3A968C1F381013C
:10189000032961D00228286820F0807028600BD0CE
:1018A000E86820F00300E860E86847490840E8601D
:1018B000FFF7FEFA04464BE0FFF7FAFA064604E0AB
:1018C000FFF7F6FA801B02283FD828688001F7D47A
:1018D000F4E908016FF00F0202EB01110843218ABD
:1018E0005204490802EB4151A26841EA022108432F
:1018F000217D4FF07E42490802EB41610843217B84
:1019000040EAC160E96800E062E0304A1140084303
:10191000E860286840F080702860E86840F08070D7
:10192000E860FFF7C5FA044605E000BFFFF7C0FA1C
:10193000001B022809D828688001F7D548E004E098
:10194000FFF7B6FA001B022802D90320BDE8F8838E
:1019500028688001F4D43BE00128F7D0E868226AC7
:1019600000F00301914226D1616A00F0F002090102
:10197000103991421FD1A26A00F4FE41B1EB022F4F
:1019800019D194F82C2000F07841B1EBC26F12D13C
:10199000218E00F4C00249084905A1F500119142C9
:1019A00009D194F8341000F0C06049084906A1F14B
:1019B000007181420CD00120C8E7000000100240F5
:1019C0001400002000700040FFFFEEFE0C809F011D
:1019D0000020BBE710B5401EB0F1807F01D301208D
:1019E00010BD4FF0E02460610F21601701F0E2F8B4
:1019F0000020A06107202061002010BD70477047C3
:101A00007047704770477047F0B590F83C20012A46
:101A10003AD0012580F83C50022280F83D2003682E
:101A20005A689C68194E1A4FB34201D0BB4204D188
:101A300022F4700C4A6842EA0C02DFF858C002EA4D
:101A40000C02D1F800C04CEA020CC3F804C00268D2
:101A5000B2420DD0B2F1804F0AD00F4B9A4207D05C
:101A60000E4B9A4204D0BA4202D00D4B9A4204D196
:101A7000896824F080031943916080F83D5000216B
:101A800080F83C100846F0BD0220F0BD002C01405B
:101A9000003401408FFFFFFD0004004000080040BB
:101AA000004001407047000070B50068B0F1804F01
:101AB0003DD11F4C01261F4D207801280DD100215A
:101AC000284600F0D3FA60602868016A21F00A0114
:101AD00001622868016A016266702078002826D1B8
:101AE000A078401CA07026700021A1602868026ABE
:101AF00041F211131A4207D1026A9B001A4203D124
:101B0000026822F0010202602868426AE2604162D3
:101B10002868016A21F00A0101622868016A41F01F
:101B2000020101622868016841F00101016070BD95
:101B300000000020000100202DE9F041054690F84A
:101B40003C0000260C46012810D0012085F83C00FE
:101B500072B1042A1CD0082A2CD00C2A50D001269D
:101B6000002085F83C003046BDE8F0810220FBE70C
:101B7000D4E90012E368286800F066FD28688169EE
:101B800021F00C01816128688169A26811430FE08E
:101B9000D4E90012E368286800F08CFD28688169A8
:101BA00021F44061816128688169A26841EA0221CB
:101BB0008161D5E72868D4E9002C277B016A21F4EC
:101BC00080710162C169036A21F0030141EA0C01DD
:101BD00021F0F00C39074FF420674CEA116123F42F
:101BE000206307EA02221A43C16102622868C169C0
:101BF00021F00C01C1612868C169A268114328E085
:101C00002868D4E90027E168036A23F4805303625B
:101C1000D0F81CC0036A2CF4407C4CEA07274FF62E
:101C2000FF7C27F470470CEA013139434FF4204719
:101C300023F4204307EA02321A43C1610262286892
:101C4000C16921F44061C1612868C169A26841EAA3
:101C50000221C16184E710B5040003D094F83D006F
:101C600010B107E0012010BD002084F83C002046A0
:101C700000F022F8022084F83D00211D206800F0C9
:101C80007DFC012084F8480084F83E0084F83F0081
:101C900084F8400084F8410084F8420084F843004E
:101CA00084F8440084F8450084F8460084F847002E
:101CB00084F83D00002010BD10B586B00446142104
:101CC0006846FEF7DFFA2068B0F1804F27D115484B
:101CD000816D41F001018165816D01F00101059186
:101CE000C16C41F00101C164C06C694600F00100A3
:101CF00005904FF4004000900220019000200290D7
:101D00000390012004904FF09040FEF7ADFF0022B9
:101D100011461C20FFF732F91C20FFF721F906B00D
:101D200010BD00000010024030B50446002571B11E
:101D3000042911D0082914D00C2917D0102918D043
:101D400094F8430094F84720012817D114E094F840
:101D50003E0094F84420F7E794F83F0094F84520BB
:101D6000F2E794F8400094F84620EDE794F841003B
:101D7000E8E794F84200E5E7012A01D0012030BDF0
:101D8000022079B1042916D008291DD00C2949D088
:101D900010294AD084F8430084F847000C2947D022
:101DA00001253DE084F83E0084F844002068C268C4
:101DB00042F0020210E084F83F0084F845002068F9
:101DC000C26842F0040207E084F8400084F846004C
:101DD0002068C26842F00802C2600122206800F058
:101DE00025FC1649206888420ED0B0F1804F0BD0F8
:101DF0001349884208D01349884205D012498842C5
:101E000002D01249884207D18168114A114006293F
:101E100006D0B1F5803F03D0016841F001010160B7
:101E2000284630BD84F84100B6E784F84200B3E7A5
:101E30002068C26842F01002CEE70000002C01408A
:101E40000004004000080040003401400040014010
:101E50000700010070B50446006801694FF00005F5
:101E6000C943890715D4C168C943890711D4E91E3C
:101E7000016101202077206880698007204602D018
:101E8000FFF712FE04E000F0E3F8204600F0E1F86E
:101E9000257720680169C943490717D4C168C94338
:101EA000490713D46FF004010161022020772068F4
:101EB000806910F4407F204602D0FFF7F5FD04E072
:101EC00000F0C6F8204600F0C4F8257720680169C4
:101ED000C943090716D4C168C943090712D46FF072
:101EE00008010161042020772068C069800720462E
:101EF00002D0FFF7D9FD04E000F0AAF8204600F078
:101F0000A8F8257720680169C943C90617D4C168B4
:101F1000C943C90613D46FF010010161082020776E
:101F20002068C06910F4407F204602D0FFF7BCFD56
:101F300004E000F08DF8204600F08BF8257720684B
:101F40000169C943C90708D1C168C943C90704D198
:101F5000891E0161204600F07DF820680169C943AF
:101F6000090609D4C168C943090605D46FF0800188
:101F700001612046FFF743FD20680169C943C90597
:101F800009D4C168C943090605D46FF480710161A1
:101F90002046FFF733FD20680169C943490609D48B
:101FA000C168C943490605D46FF04001016120466C
:101FB00000F071F820680169C943890609D4C16835
:101FC000C943890605D46FF0200101612046FFF75F
:101FD00017FD20680169C943C90209D4C168C94312
:101FE000C90205D46FF4801101612046FFF70AFD94
:101FF00020680169C943890209D4C168C9438902BB
:1020000005D46FF4001101612046FFF7FAFC206847
:102010000169C943490209D4C168C943490205D4C9
:102020006FF4800101612046FFF7EDFC2068016933
:10203000C94309020BD4C168C943090207D46FF42C
:10204000000101612046BDE87040FFF72BBD70BD67
:10205000704770470068B0F1804F03D10248816833
:10206000491C8160704700000000002002460020EB
:1020700041B1042909D008290AD00C2901D11068DE
:10208000006C70471068406B70471068806B704739
:102090001068C06B7047704790F88010012918D005
:1020A000012180F880102421C0F8841050F8641BAE
:1020B0000A680B6823F001030B6022F00051002234
:1020C000026050F8643C19602021016202771046DA
:1020D00070470220704770B5044690F880000128D0
:1020E0001DD0012084F880002420C4F884002068DA
:1020F0000568026822F0010202602068826822F00E
:1021000060620A438260204600F0F0FA20680560B1
:102110002020C4F88400002084F8800070BD0220D4
:1021200070BD70B5044690F8800001281DD00120D4
:1021300084F880002420C4F88400206805680268C0
:1021400022F0010202602068826822F060420A43A5
:102150008260204600F0CAFA206805602020C4F89A
:102160008400002084F8800070BD022070BD10B58E
:10217000040003D0D4F8840010B107E0012010BDA2
:10218000002084F88000204600F026F82420C4F8BF
:1021900084002068016821F001010160204600F000
:1021A0005BFB0128EBD0A06A10B1204600F0C0FA1A
:1021B0002068416821F4904141602068816821F0E5
:1021C0002A0181602068016841F001010160204618
:1021D000BDE8104000F010BB10B598B004461421C3
:1021E00011A8FEF74FF844216846FEF74BF817494F
:1021F0002068884228D101200024CDE900046846E7
:10220000FEF754FF08B1FEF7CBF81148016E41F418
:1022100080410166016E01F480411691C16C41F06C
:102220000101C164C06C11A900F0010016904FF4C7
:10223000C06011900220CDE912040720CDE91440BE
:102240004FF09040FEF710FD18B010BD003801406F
:1022500000100240FEE700EB8100006E00F0F84045
:1022600070478068C0F3C00070478068C0F380008A
:1022700070478068C0F380007047042303EAD1539D
:1022800010B518444369C1F3045107248C40A3439B
:102290008A401343436110BD00EB8100016E21F0C1
:1022A000004111430166704730B58BB0002408949B
:1022B0000994202168460A94FDF7E4FF1C484FF07A
:1022C000A041042501604FF44031C0E90114C4600D
:1022D0000461C0E90545047744770121016280F873
:1022E0002440C462046380F83840C46380F84040EE
:1022F000FEF7D0FA08B1FEF753F808A90C48089485
:10230000FEF750F808B1FEF74BF80A480090062097
:10231000CDE901047F200594CDE903056946044811
:10232000FEF7ACF8002801D0FEF73AF80BB030BD4C
:10233000280000200008302E30B589B020216846E2
:10234000FDF7A0FF19481849002401604FF44031FF
:10235000C0E90114C46004250461C0E9054504779F
:1023600044770121016280F82440C462046380F84C
:102370003840C46380F84040FEF78CFA08B1FEF79D
:102380000FF80B4800900620CDE901047F2005944A
:10239000CDE9030569460548FEF770F8002801D02D
:1023A000FDF7FEFF09B030BD000100509400002091
:1023B0000080F03E00B587B014216846FDF762FF4B
:1023C0001348C16C41F02001C164C16C01F02001CF
:1023D0000591C16C41F00201C164C16C01F00201C0
:1023E0000591C16C41F00101C164C06C002100F095
:1023F00001000590102000900220CDE90101CDE9F7
:10240000031069460348FEF72FFC07B000BD00002B
:10241000001002400004004810B588B0002418489D
:102420000594069404940094019402944FF0804122
:1024300003940160A921C0E90114611EC0E90314DD
:1024400080218161FFF707FC08B1FDF7A9FF049423
:1024500004A90B480694FFF7D7FA08B1FDF7A0FFCF
:102460000120CDE90040029400226946044803940B
:10247000FFF762FB002801D0FDF792FF08B010BD06
:1024800000010020184810B5164901604FF4E131F1
:102490004160002181600C22C160C0E904128161A9
:1024A000C161016241628162FFF761FE08B1FDF71F
:1024B00077FF00210C48FFF734FE08B1FDF770FFED
:1024C00000210948FFF707FE08B1FDF769FF06483C
:1024D000FFF7E2FD002803D0BDE81040FDF760BF24
:1024E00010BD0000003801404C010020FEE7FEE76F
:1024F00070477047FEF7E2BC10B594B038216846CB
:10250000FDF7C0FE14210EA8FDF7BCFE0020FEF76B
:1025100067FD012000900004032406210190CDE90D
:10252000084102205521CDE90A1007900C900D902A
:102530006846FFF749F808B172B6FEE70F20CDE90B
:102540000E04002010901190129004210EA8FEF7A6
:10255000F1FE002801D072B6FEE714B010BD0000F5
:102560000248016841F470010160704788ED00E0A5
:102570000148FFF76FBC0000000100202DE9F04387
:102580000268234B234D244E244C4FF0804998423F
:1025900007D0484505D0A84203D0B04201D0A042A0
:1025A00003D122F070074A683A431D4FDFF874C028
:1025B000DFF8748098420DD048450BD0A84209D06E
:1025C000B04207D0A04205D0B84203D0604501D048
:1025D000404503D122F44075CA682A434D6922F070
:1025E00080022A4302608A68C2620A688262984254
:1025F00007D0A04205D0B84203D0604501D0404585
:1026000001D10969016301214161BDE8F083000046
:10261000002C01400004004000080040003401404C
:1026200000400140004401400048014010B501F065
:102630001F030121046A99408C430462016A9A4095
:102640001143016210BD000070B5046A24F001045A
:1026500004628469056A124EB0420ED0B0F1804F18
:102660000BD0104EB04208D00F4EB04205D00F4EE6
:10267000B04202D00E4EB04203D124F00304144302
:1026800001E044F001041A0724F0F00444EA126265
:1026900025F00A0301F00A0119438261016270BD4D
:1026A000002C0140000400400008004000340140BC
:1026B0000040014030B5046A24F0100404628469CB
:1026C000056A24F4407444EA022222F470444FF66E
:1026D000FF7202EA03322243A02425F0A00304EA99
:1026E000011119438261016230BD000030B5416EB5
:1026F000B9B1026891689268C1F342610B4B520F05
:102700009C5CE50003F10804A25CB5FBF2F2A0F8C2
:102710006A205A5C615CD200B2FBF1F1A0F868104B
:1027200030BD0121A0F86A10F8E70000E42D000890
:1027300090F82810C90706D001684A68C36A22F4D5
:1027400000321A434A6090F82810890706D50168BC
:102750004A68036B22F480321A434A6090F82810CA
:10276000490706D501684A68436B22F480221A4360
:102770004A6090F82810090706D501684A68836BFB
:1027800022F400421A434A6090F82810C90606D580
:1027900001688A68C36B22F480521A438A6090F8F9
:1027A0002810890606D501688A68036C22F4005255
:1027B0001A438A6090F82810490611D501684A68C2
:1027C000436C22F480121A434A60416CB1F5801FB9
:1027D00006D101684A68836C22F4C0021A434A6039
:1027E00090F82810090606D501684A68C06C22F4E2
:1027F000002202434A607047F8B500260446C0F83C
:102800008C60FEF755FB0546206800686FF07E4738
:10281000000708D52B4600224FF4001120460097F0
:1028200000F054F960B92068006840070AD52B46CB
:1028300000224FF480012046009700F047F908B1CC
:102840000320F8BD2020C4F88400C4F8880044F8B0
:102850006C6F00202675F8BD2DE9F0410446016833
:1028600080682269E3691043626900251A431043B6
:10287000DFF82CC20A688B4B1A4002430A602068BA
:102880004168E26821F44051114341602168A06928
:10289000614501D0226A10438A68834B1A40024383
:1028A0008A602068C16A626A21F00F011143C16227
:1028B0007E4923687E488B420DD1D0F8880010F005
:1028C000030006D0012855D0022842D003283FD16A
:1028D00052E001203DE077498B420BD1D0F88800CF
:1028E00010F00C0035D0042833D0082840D00C2834
:1028F0002ED141E070498B420BD1D0F8880010F006
:10290000300026D0102835D0202831D030281FD1D3
:1029100032E06A498B420BD1D0F8880010F0C00039
:1029200017D0402826D0802822D0C02810D123E0FC
:1029300063450DD1D0F8880010F4406009D0B0F59F
:10294000806F17D0B0F5006F12D0B0F5406F13D084
:1029500010205B495B4F00264FF4004263453BD19A
:1029600060B1022813D004280BD0082872D10DE0E2
:102970000220EEE70420ECE70820EAE7FEF7C8FDB6
:1029800001E0FEF7E9FD010001D17CE01146606A3B
:1029900037F810206768B1FBF2F007EB470383427A
:1029A00070D8B0EB073F6DD8002308461946FDF7F5
:1029B00031FC090241EA10610202780810187141E5
:1029C0003A460023FDF726FC3F4AA0F540719142AC
:1029D00058D82168C86056E0E3694FF6EF78934213
:1029E0002CD109284ED2DFE800F00508114D0D4D1D
:1029F0004D4D1000FEF78CFD01E0FEF79BFD010040
:102A000004D140E0FEF7A8FDF9E71146606A37F807
:102A10001000B1FBF0F04100606801EB5001B1FB28
:102A2000F0F0A0F1100141452CD84FF6F0710140B3
:102A3000C0F3420001432068C16024E0092821D28C
:102A4000DFE800F0050912200E2020201100FEF71B
:102A50005FFD02E016E0FEF76DFD010004D112E01B
:102A6000FEF77AFDF9E71146606A37F81000B1FB0E
:102A7000F0F1606801EB5001B1FBF0F0A0F1100142
:102A800041450AD901250120A4F86A0024F8680FFD
:102A90002846A660E660BDE8F08180B299E70000B4
:102AA00000800040F369FFCFFFF4FF1100380140C0
:102AB000001002400044004000480040004C00402C
:102AC0000024F400CC2D0008FFFC0F002DE9F04796
:102AD0009A4617460E4604464FF000094FF020086C
:102AE000089D4AE0681C48D0FEF7E2F9A0EB0A0016
:102AF000A8422AD84DB32068016849073DD5C0696E
:102B0000C043000539D421684FF400600862206892
:102B100050E8001F21F4D07140E80012002AF6D1DD
:102B20002068083050E8001F21F0010140E8001241
:102B3000002AF5D144F8848FC4F80480C4F80880D2
:102B400004F8049C0320BDE8F087216851E8000FD9
:102B500020F4D07041E80002002AF6D12068083045
:102B600050E8001F21F0010140E80012002AF5D1D1
:102B700044F8848FC4F80480E2E72068C06936EA2C
:102B8000000004D00020B842ACD00020DBE70120D8
:102B9000F9E7FEE70FB4054B10B503A9044A029804
:102BA00000F028F810BC5DF814FB0000492D000867
:102BB000240000200907090E002804DB00F1E020B2
:102BC00080F80014704700F00F0000F1E02080F85A
:102BD000141D704702E008C8121F08C1002AFAD16C
:102BE00070477047002001E001C1121F002AFBD18D
:102BF000704700002DE9FF4F89B09B460446002531
:102C000006E025280BD05A460B999047641C6D1C92
:102C100020780028F5D10DB02846BDE8F08F0027B8
:102C2000B8460122474900E0074314F8013F203B22
:102C300002FA03F00842F7D120782E2819D114F8AF
:102C4000010F47F004072A280ED06FF02F022078DA
:102C5000A0F1300109290CD808EB880102EB4101F1
:102C600000EB0108641CF2E70A98641C50F8048B1E
:102C70000A9020780028CED0642808D0692806D091
:102C800075281ED05A460B9990476D1C58E00A993A
:102C90004FF00A0901C90A91002802DA40422D21A9
:102CA00002E0390504D52B218DF82010012103E025
:102CB000F90704D02021F7E78A4608AE0DE000218D
:102CC000FAE70A994FF00A0901C90A91F7E749465C
:102CD000FDF7E3FA303106F8011D0028F7D1ADEB1E
:102CE000060000F12009780701D44FF00108C8451B
:102CF00002DDA8EB090000E000208046002706E086
:102D000008A85A46C05D0B9990476D1C7F1C57451B
:102D1000F6DB04E030205A460B9990476D1CB8F161
:102D20000001A8F10108F5DC05E016F8010B5A4690
:102D30000B9990476D1CB9F10001A9F10109F4DC70
:102D4000641C65E70928010004490A685206FCD59D
:102D5000024AC1B20C321160704700001C380140B9
:102D6000FEF7B4F8FFF7C8FBFFF724FBFFF79CFA68
:102D7000FFF7E2FAFFF786FBFFF74EFB0C48FDF783
:102D8000F9FE0C48FDF7F6FE00210B48FEF7CCFFDC
:102D90000A4C00256078012801D165702570A07863
:102DA0000228F7D1A57006A0E168FFF7F3FEF1E76E
:102DB00028000020940000200001002000000020D6
:102DC0004652453A25640D0A000000000100020049
:102DD0000400060008000A000C001000200040005B
:102DE0008000000101010103070100000804020442
:102DF00008010101000000000000000001020304BE
:102E00000607080900000000010203042C2E000838
:102E10000000002028000000D42B0008542E0008D9
:102E200028000020B8050000E42B00080000000086
:102E30000000000000000000000000000000000092
:102E40001000000001000000000000000024F40059
:042E5000000000007E
:04000005080001D915
:00000001FF
