:020000040800F2
:10000000C8040020F1010008FF150008C51400080D
:10001000FD150008FD020008DF1B000800000000BD
:10002000000000000000000000000000B7160008FB
:10003000FF0200080000000001160008B9160008C1
:100040000B0200080B0200080B0200080B0200085C
:100050000B0200080B0200080B0200080B0200084C
:100060000B0200080B0200080B0200080B0200083C
:100070000B0200080B0200080B0200080B0200082C
:100080000B020008000000000B0200080B02000831
:100090000B0200080B0200080B0200080B0200080C
:1000A0000B0200080B0200080B0200080B020008FC
:1000B0000B0200080B0200080B0200080B020008EC
:1000C0000B0200080B0200080B0200080B020008DC
:1000D0000B0200080B0200080B0200080B020008CC
:1000E0000B0200080B0200080B0200080B020008BC
:1000F0000B0200080B0200080B02000800000000C1
:10010000000000000B020008000000000B020008C5
:100110000B020008000000000B0200080B020008A0
:100120000B0200080B0200080B0200080B0200087B
:100130000B02000800000000000000000B02000895
:100140000B0200080B020008000000000000000085
:10015000000000000000000000000000000000009F
:100160000000000000000000000000000B0200087A
:100170000B0200080000000000000000000000006A
:10018000000000000B02000800000000000000005A
:10019000000000000000000000000000000000005F
:1001A00000000000000000000B0200080B02000825
:1001B0000B0200080B0200080B0200080000000000
:1001C000000000000B02000800000000000000001A
:1001D0000B0200080B020008DFF810D000F07CF8DA
:1001E000004800471F1C0008AFF30080C80400202F
:1001F0000648804706480047FEE7FEE7FEE7FEE7C1
:10020000FEE7FEE7FEE7FEE7FEE7FEE72917000848
:10021000D90100082DE9F05F0546002092469B4673
:1002200088460646814640241BE02846414647460C
:10023000224600F041F853465A46C01A914110D365
:1002400011461846224600F028F82D1A67EB0108DF
:100250004F4622460120002100F01FF817EB00094D
:100260004E41201EA4F10104DFDC484631462A46F7
:100270004346BDE8F09FD2B201E000F8012B491ED1
:10028000FBD270470022F6E710B513460A46044633
:100290001946FFF7F0FF204610BD202A04DB203A64
:1002A00000FA02F1002070479140C2F1200320FAC9
:1002B00003F3194390407047202A04DB203A21FAC7
:1002C00002F00021704721FA02F3D040C2F120026F
:1002D0009140084319467047064C074D06E0E06818
:1002E00040F0010394E8070098471034AC42F6D37D
:1002F000FFF776FF741C0008941C0008FEE77047A7
:1003000072B6FEE72DE9F04FDFF8209200230126B8
:100310000324A9F1040B85B00F2709F1040AABF1FE
:10032000040EFAE006FA03F52A407CD091F804C0E6
:100330000CF0030CBCF1010F02D0BCF1020F26D16E
:10034000D0F808C0CDF800C04FEA430C04FA0CF80E
:10035000CDF810C0DDF800C02CEA080CCDF800C0C4
:10036000D1F80C80DDF810C008FA0CF8DDF800C0F8
:1003700048EA0C08C0F80880D0F804C02CEA050C44
:100380000D79C5F300159D4045EA0C0545600D79D2
:10039000ED43AD070ED0C5684FEA430804FA08FCE8
:1003A00025EA0C05D1F808C00CFA08FC4CEA050C4B
:1003B000C0F80CC00D7905F00305022D16D1DD083B
:1003C00000EB850CCDF808C0DCF820805D074FEA13
:1003D000D56C07FA0CF528EA05080D6905FA0CF545
:1003E000DDF808C045EA0805CCF8205005684FEA5A
:1003F000430CCDF808C004FA0CFC25EA0C0591F872
:1004000004C00CF00308DDF808C008FA0CF848EA4C
:100410000508C0F800804D6815F4403F7CD0444D7D
:10042000D5F860C000E077E04CF0010CC5F860C082
:100430002D6E23F0030C05F0010500953D4D65443C
:100440000295AD684FEA837C4FEA1C7807FA08FCF6
:1004500025EA0C05B0F1904F06D0DFF8DCC060450E
:1004600005D14FF0010C20E04FF0000C1DE0DFF84B
:10047000CCC0604502D14FF0020C16E0DFF8C0C0DE
:10048000604502D14FF0030C0FE0DFF8B8C06045C3
:1004900002D14FF0040C08E0DFF8ACC0604502D197
:1004A0004FF0050C01E04FF0060C0CFA08FC4CEA8A
:1004B000050C029DC5F808C0D9F80050CC46D1F80B
:1004C000048095435FEAC82800D51543CCF8005056
:1004D000DAF80050D446D1F8048095435FEA8828C2
:1004E00000D51543CCF80050DBF80050DC46D1F8BD
:1004F000048095435FEA883800D51543CCF8005056
:10050000DEF80050F446D1F8048095435FEAC8381D
:1005100000D51543CCF800505B1C0A6832FA03F58D
:100520007FF400AF05B0BDE8F08F00000804014083
:10053000001002400000014000040048000800488C
:10054000000C004800100048001400480148806872
:100550007047000000000020024881684268114492
:10056000816070470000002010B50024032000F0D7
:1005700065F80F2000F008F808B1012401E000F050
:1005800025F8204610BD000070B50E4E054600242B
:10059000706898B14FF47A71B1FBF0F00A490968BC
:1005A000B1FBF0F000F09BFE40B9102D06D2002206
:1005B0002946501E00F022F8356000E00124204654
:1005C00070BD0000000000200C0000200A4882B02E
:1005D000016E41F001010166016E01F0010100911F
:1005E000816D41F080518165806D00F080500090F8
:1005F00002B000F093B8000000100240F0B40E4BBF
:100600001B680C46C3F30223C3F10705042D00D970
:100610000425191D072901D2002300E0DB1E012655
:1006200006FA05F1491E214099409E40761E16406B
:100630003143F0BC01F0D4BA0CED00E0064900F003
:10064000070208684FF6FF03184040EA0220034AF9
:1006500010430860704700000CED00E00000FA0550
:100660002B492C4B0A6832214A432B4940B1B0F543
:10067000007F086829D020F4C06040F480602CE03E
:100680000868C0F34120022804D051F8800F20F4FC
:10069000807022E0D1F8800020F48070C1F88000E2
:1006A000086820F4C06040F400700860B2FBF3F00A
:1006B000401C00E0401E4A69520501D50028F9D1CE
:1006C000486940050AD503207047C0F3412002283D
:1006D00006D051F8800F40F4807008600020704709
:1006E000D1F8800040F48070C1F88000086820F4E0
:1006F000C06040F400700860B2FBF3F0401C00E002
:10070000401E4A695205DBD50028F9D1D8E7000020
:100710000C00002040420F00007000400248816839
:1007200041F4804181607047007000402DE9F8433A
:100730000446006800269D4D00035ED5A86D002785
:10074000C00008D4A86D40F08050A865A86D0127AE
:1007500000F080500090DFF85892D9F8001041F472
:100760008071C9F80010FFF7F1FE804606E000BF77
:10077000FFF7ECFEA0EB080002282BD8D9F8000008
:10078000C005F5D5D5F8900010F4407014D0216C58
:10079000814211D0D5F89000D5F8901020F4407027
:1007A00041F48031C5F89010D5F8901021F48031D3
:1007B000C5F89010C5F89000C00711D0FFF7C6FE2D
:1007C000804641F2883907E0FFF7C0FEA0EB080140
:1007D000494501D903260BE0D5F890008007F3D5F1
:1007E000D5F89000216C20F440700843C5F89000C3
:1007F0001FB1A86D20F08050A8652078C00707D0F1
:10080000D5F88800616820F003000843C5F8880027
:100810002078800707D5D5F88800A16820F00C0063
:100820000843C5F888002078400707D5D5F8880028
:10083000E16820F030000843C5F888002078000700
:1008400007D5D5F88800216920F0C0000843C5F815
:1008500088002078800607D5D5F88800616920F4E3
:1008600040600843C5F888002078400607D5D5F8D1
:100870008800A16920F440500843C5F8880020781A
:10088000000607D5D5F88800E16920F44040084308
:10089000C5F888002088C00507D5D5F88800216AEA
:1008A00020F440300843C5F888002088800507D52B
:1008B000D5F88800616A20F440200843C5F8880014
:1008C000208840050FD5D5F88800A16A20F4401093
:1008D0000843C5F88800A06AB0F5801F03D1E86816
:1008E00040F48010E860208800050FD5D5F8880016
:1008F000E16A20F440000843C5F88800E06AB0F5DA
:10090000800F03D1E86840F48010E8602088C004BC
:100910000FD5D5F88800216B20F040700843C5F84A
:100920008800206BB0F1807F03D1E86840F480102C
:10093000E86020884FF0006180040ED5D5F888006B
:10094000626B20F040601043C5F88800606B8842FD
:1009500003D1E86840F48010E860208840040ED598
:10096000D5F88800A26B20F040601043C5F88800DD
:10097000A06B884203D1E86840F48010E8602088CA
:1009800000040FD5D5F88800E16B20F040500843F3
:10099000C5F88800E06BB0F1805F03D1E86840F4EF
:1009A0008030E8603046BDE8F88300000010024067
:1009B000007000402DE9F0470E4605004FF000079B
:1009C00025D0DFF8AC81D8F8000000F00F00B0426D
:1009D0000CD2D8F8001021F00F013143C8F80010F4
:1009E000D8F8000000F00F00B04210D12968614C27
:1009F000C80741F2883A5AD06868DFF87C9103282A
:100A000008D0022820682DD0400500282CDB0120CA
:100A1000BDE8F08720688001F9D5E06800F00302A6
:100A2000E068C0F30310401C032A19D0534A00BFEA
:100A3000B2FBF0F0E268C2F306225043E268C2F370
:100A40004162521C5200B0FBF2F0484517D9A06831
:100A500010F0F00F0CD0880711D5A86840B10EE057
:100A6000474AE5E78003D0E700F0B6F8484506D9E5
:100A7000A06820F0F00040F08000A0608027A0680F
:100A8000696820F003000843A060FFF75FFD81461E
:100A900006E000BFFFF75AFDA0EB090151453AD827
:100AA000A068696800F00C00B0EB810FF2D12868F3
:100AB000810714D5400703D5A06840F4E060A0602A
:100AC0002878000705D5A06820F4605040F4E06065
:100AD000A060A068A96820F0F000084304E0802F1F
:100AE00003D1A06820F0F000A060D8F800104046C4
:100AF00001F00F01B14216D9016821F00F01314315
:100B00000160FFF723FD074607E000BFFFF71EFD6A
:100B1000C11B514501D903207AE7D8F8000000F045
:100B20000F00B042F2D12878400705D5A068E968E7
:100B300020F4E0600843A0602878000706D5A0688C
:100B4000296920F4605040EAC100A06000F044F838
:100B5000A1680C4AC1F30311515C01F01F01C840A8
:100B60000949086009480068BDE8F047FFF70CBD77
:100B7000002002400010024000B4C4040024F4002D
:100B800000127A005C1C00080C000020000000200D
:100B90000548064900688968054AC1F30221515C8D
:100BA00001F01F01C84070470C00002000100240F7
:100BB0006C1C00080548064900688968054AC1F3AD
:100BC000C221515C01F01F01C84070470C00002099
:100BD000001002406C1C0008184910B58868C0F36A
:100BE00081021748012A0BD08A684310C2F38102A0
:100BF000022A06D08A68C2F38102032A03D00020A9
:100C000010BD184610BDCA6802F00304CA68C2F3DA
:100C10000312521C032C02D0B0FBF2F001E0B3FB34
:100C2000F2F0CA68C968C2F306225043C1F34161B9
:100C3000491C4900B0FBF1F010BD0000001002405B
:100C40000024F4002DE9F84304007AD02078FA4D0E
:100C5000C00747D0A868E96800F00C0001F0030164
:100C60000C2802D0082817D001E0032914D06068AE
:100C7000B0F5803F17D0B0F5A02F286817D020F42A
:100C800080302860286820F4802028606068E0B107
:100C9000FFF75CFC064614E02868800322D56068F4
:100CA0000028D2D01EE0286840F48030EDE740F400
:100CB00080202860F7E700BFFFF748FC801B64280E
:100CC00070D828688003F7D50CE0FFF73FFC064694
:100CD00005E000BFFFF73AFC801B6428F0D82868C5
:100CE0008003F7D4207880074CD5A868E96800F025
:100CF0000C0001F003010C2802D004280DD001E003
:100D000002290AD0E068002828682BD040F48070BF
:100D10002860FFF71BFC064619E02868400502D54D
:100D2000E068002891D06868217C20F0FE4040EA0D
:100D300001606860C1480068FFF726FC002800D108
:100D400020E076E1FFF702FC801B0228B8D8286873
:100D50004005F7D56868217C20F0FE4040EA01603C
:100D600068600FE020F480702860FFF7EFFB064614
:100D700005E000BFFFF7EAFB801B0228A0D8286827
:100D80004005F7D42078000729D560690028D5F8F8
:100D9000940013D040F00100C5F89400FFF7D6FB93
:100DA000064606E090E000BFFFF7D0FB801B02285C
:100DB00086D8D5F894008007F6D510E020F0010021
:100DC000C5F89400FFF7C2FB064604E0FFF7BEFB40
:100DD000801B022878D8D5F894008007F6D42078B4
:100DE000400761D5A86D0026C00008D4A86D40F06A
:100DF0008050A865A86D012600F0805000909048B2
:100E00000168C90511D40168804641F48071016010
:100E1000FFF79CFB074604E0FFF798FBC01B022886
:100E200052D8D8F80000C005F6D5A068012815D022
:100E30000528D5F8900016D020F00100C5F89000E4
:100E4000D5F8900020F00400C5F89000A06841F2A9
:100E50008838B8B1FFF77AFB07460EE0D5F8900066
:100E600040F00100F0E740F00400C5F89000F5E71D
:100E7000FFF76CFBC11B414526D8D5F890008007D1
:100E8000F6D50CE0FFF762FB074604E0FFF75EFBD8
:100E9000C11B414518D8D5F890008007F6D41EB183
:100EA000A86D20F08050A8652078800629D5A0691B
:100EB0000028D5F8980013D040F00100C5F898003C
:100EC000FFF744FB064606E077E000BFFFF73EFB76
:100ED000801B022877D8D5F898008007F6D510E057
:100EE00020F00100C5F89800FFF730FB064604E04B
:100EF000FFF72CFB801B022865D8D5F898008007E7
:100F0000F6D4E069F0B3A968C1F38101032961D087
:100F10000228286820F0807028600BD0E86820F054
:100F20000300E860E86847490840E860FFF70EFB07
:100F300004464BE0FFF70AFB064604E0FFF706FB1A
:100F4000801B02283FD828688001F7D4F4E9080103
:100F50006FF00F0202EB01110843218A5204490885
:100F600002EB4151A26841EA02210843217D4FF082
:100F70007E42490802EB41610843217B40EAC1609F
:100F8000E96800E062E0304A11400843E860286800
:100F900040F080702860E86840F08070E860FFF7FB
:100FA000D5FA044605E000BFFFF7D0FA001B02287F
:100FB00009D828688001F7D548E004E0FFF7C6FAB1
:100FC000001B022802D90320BDE8F88328688001AD
:100FD000F4D43BE00128F7D0E868226A00F003016E
:100FE000914226D1616A00F0F00209011039914264
:100FF0001FD1A26A00F4FE41B1EB022F19D194F87F
:101000002C2000F07841B1EBC26F12D1218E00F498
:10101000C00249084905A1F50011914209D194F88F
:10102000341000F0C06049084906A1F10071814206
:101030000CD00120C8E70000001002400000002092
:1010400000700040FFFFEEFE0C809F010020BBE718
:1010500070B504004FF0010040D094F8250028B985
:10106000002084F82400204600F03CF8022084F898
:1010700025002168CA204862216853204862204622
:1010800000F0CCFA10BB20688169154A11408161DB
:10109000216888696268A369104322691A43104372
:1010A00088612189E06840EA0140216808612046A2
:1010B00000F0D9FA50B9D4E90721114322686369D5
:1010C000956925F060452B43194391612268FF2102
:1010D0005162002802D1012184F8251070BD000062
:1010E000BFFF8FFB10B592B0044644216846FFF75E
:1010F000C9F810492068884219D14FF400200090A7
:10110000801210906846FFF711FB08B1FFF7F8F85E
:10111000094850F8901F41F4004140F8381901681F
:1011200041F480610160006800F48060119012B0A9
:1011300010BD0000002800400010024070B50446B9
:1011400090F824000B4601281BD0012684F8246067
:10115000022084F82500B2B19878D97840EA014598
:1011600058781978000240EA413005432168CA20C6
:101170004862216853204862204600F04FFAD0B1FF
:1011800020E0022070BD5878C10603D500F0EF00C2
:101190000A305870D87800F034FA0504587800F016
:1011A00030FA45EA0025987800F02BFA05431878C4
:1011B00045EA4035DAE708480540206845602046A2
:1011C00000F051FA2268FF21516208B984F82560C5
:1011D000002184F8241070BD3FFFFF002DE9F0418D
:1011E000044690F8240090460D46012811D00127AE
:1011F00084F82470022084F825002168CA204862FF
:10120000216853204862204600F008FA002618B1F1
:1012100029E00220BDE8F0812068B8F1000F806964
:101220004FEA406024D0002800DBEE70A8782978CF
:10123000EA7840EA01406978090241EA82510843AC
:1012400018490840216808602068816921F48021DC
:101250008161D5E90301084321688A6910438861E7
:10126000204600F000FA2268FF215162A0B115E08B
:10127000002800DBEE70287800F0C3F903046878DA
:1012800000F0BFF943EA0023A87800F0BAF903435D
:10129000E87843EA8050D3E784F8257084F8246026
:1012A000B8E700007F7F7F0070B504460068C16822
:1012B00021F02001C160FFF749F905464FF47A7625
:1012C00007E000BFFFF742F9401BB04201D90320FD
:1012D00070BD2068C0688006F4D5002070BD10B5D0
:1012E000401EB0F1807F01D3012010BD4FF0E024FB
:1012F00060610F21601700F073FC0020A0610720DF
:101300002061002010BD90F88010012918D0012123
:1013100080F880102421C0F8841050F8641B0A68FB
:101320000B6823F001030B6022F0005100220260E1
:1013300050F8643C19602021016202771046704722
:101340000220704770B5044690F8800001281DD037
:10135000012084F880002420C4F8840020680568F7
:10136000026822F0010202602068826822F0606256
:101370000A438260204600F0DFF9206805602020E3
:10138000C4F88400002084F8800070BD022070BD85
:1013900070B5044690F8800001281DD0012084F823
:1013A00080002420C4F8840020680568026822F0C8
:1013B000010202602068826822F060420A43826073
:1013C000204600F0B9F9206805602020C4F88400A8
:1013D000002084F8800070BD022070BD10B50400AC
:1013E00003D0D4F8840010B107E0012010BD002024
:1013F00084F88000204600F027F82420C4F88400F8
:101400002068016821F001010160204600F04AFADD
:101410000128EBD0A06A10B1204600F0AFF9206897
:10142000416821F4904141602068816821F02A01DF
:1014300081602068016841F0010101602046BDE83B
:10144000104000F0FFB9000010B598B00446142118
:1014500011A8FEF717FF44216846FEF713FF16494F
:101460002068884226D101200024CDE90004684686
:10147000FFF75CF908B1FEF743FF1048016E41F435
:1014800080410166016E01F480411691C16C41F00A
:101490000401C164C06C11A900F004001690302052
:1014A00011900220CDE912040720CDE91440044830
:1014B000FEF728FF18B010BD0038014000100240B0
:1014C00000080048FEE700000D4808B5C16C41F077
:1014D0002001C164C16C01F020010091C16C41F098
:1014E0000401C164C16C01F004010091C16C41F0C0
:1014F0000101C164C06C00F00100009008BD000053
:101500000010024010B586B014216846FEF7BAFEFE
:101510001F4800241D490594C0E900147F21816003
:10152000FF21C0E903144FF080414461C0E9064146
:101530000462FFF78DFD08B1FEF7E2FE11208DF881
:10154000000050208DF801008DF8024001940394B2
:10155000012269460E480494FFF740FE08B1FEF7E9
:10156000CFFE01208DF814008DF815008DF81600BF
:1015700002468DF8174005A90548FFF7DFFD002852
:1015800001D0FEF7BDFE06B010BD000000280040EF
:1015900010000020184810B5164901604FF4E131E1
:1015A0004160002181600C22C160C0E904128161A8
:1015B000C161016241628162FFF710FF08B1FEF76D
:1015C0009FFE00210C48FFF7E3FE08B1FEF798FEEE
:1015D00000210948FFF7B6FE08B1FEF791FE064864
:1015E000FFF791FE002803D0BDE81040FEF788BE4B
:1015F00010BD00000038014038000020FEE7FEE783
:1016000070470022014602E00A39C9B2521C0A2979
:10161000FAD2100741EA1060704700002DE9F0414E
:10162000044600680025C168490619D4C16841F024
:101630008001C160FEF78AFF06464FF47A780327DF
:1016400008E000BFFEF782FF801B404502D903255A
:1016500084F825702068C068400601D4032DF1D1BC
:101660002846BDE8F08170B5044600680025C168D1
:1016700021F08001C160206881694FF0030689066E
:1016800007D42046FFF710FE98B184F825600325A3
:101690000FE0816921F0200181612046FFF704FEFF
:1016A00010B184F8256003252068816941F020018C
:1016B0008161284670BD7047FEF74EBF10B594B0EB
:1016C00038216846FEF7DEFD14210EA8FEF7DAFD8C
:1016D0000020FEF7C5FF092000904FF480300190F4
:1016E0000120059002200324CDE907045521CDE90E
:1016F00009010B900C900D906846FFF7A3FA08B112
:1017000072B6FEE70F20CDE90E0400201090119074
:10171000129004210EA8FFF74DF9002801D072B6EF
:10172000FEE714B010BD00000248016841F47001EA
:101730000160704788ED00E030B5416EB9B10268D4
:1017400091689268C1F342610B4B520F9C5CE500BB
:1017500003F10804A25CB5FBF2F2A0F86A205A5C1F
:10176000615CD200B2FBF1F1A0F8681030BD01213C
:10177000A0F86A10F8E700004C1C000890F8281048
:10178000C90706D001684A68C36A22F400321A43C6
:101790004A6090F82810890706D501684A68036BEB
:1017A00022F480321A434A6090F82810490706D57F
:1017B00001684A68436B22F480221A434A6090F819
:1017C0002810090706D501684A68836B22F4004295
:1017D0001A434A6090F82810C90606D501688A683D
:1017E000C36B22F480521A438A6090F8281089064D
:1017F00006D501688A68036C22F400521A438A6095
:1018000090F82810490611D501684A68436C22F403
:1018100080121A434A60416CB1F5801F06D10168FD
:101820004A68836C22F4C0021A434A6090F8281078
:10183000090606D501684A68C06C22F400220243FA
:101840004A607047F8B500260446C0F88C60FEF781
:101850007DFE0546206800686FF07E47000708D5CA
:101860002B4600224FF400112046009700F054F957
:1018700060B92068006840070AD52B4600224FF463
:1018800080012046009700F047F908B10320F8BD19
:101890002020C4F88400C4F8880044F86C6F00204D
:1018A0002675F8BD2DE9F04104460168806822697B
:1018B000E3691043626900251A431043DFF82CC224
:1018C0000A688B4B1A4002430A6020684168E2684C
:1018D00021F44051114341602168A069614501D064
:1018E000226A10438A68834B1A4002438A60206848
:1018F000C16A626A21F00F011143C1627E49236807
:101900007E488B420DD1D0F8880010F0030006D03D
:10191000012855D0022842D003283FD152E00120AF
:101920003DE077498B420BD1D0F8880010F00C00D5
:1019300035D0042833D0082840D00C282ED141E0DF
:1019400070498B420BD1D0F8880010F0300026D0BF
:10195000102835D0202831D030281FD132E06A49F4
:101960008B420BD1D0F8880010F0C00017D040286F
:1019700026D0802822D0C02810D123E063450DD185
:10198000D0F8880010F4406009D0B0F5806F17D00F
:10199000B0F5006F12D0B0F5406F13D010205B4946
:1019A0005B4F00264FF4004263453BD160B10228F3
:1019B00013D004280BD0082872D10DE00220EEE7E6
:1019C0000420ECE70820EAE7FFF7E2F801E0FFF780
:1019D00003F9010001D17CE01146606A37F810205C
:1019E0006768B1FBF2F007EB4703834270D8B0EBB6
:1019F000073F6DD8002308461946FEF70BFC090285
:101A000041EA106102027808101871413A46002339
:101A1000FEF700FC3F4AA0F54071914258D821687A
:101A2000C86056E0E3694FF6EF7893422CD109285D
:101A30004ED2DFE800F00508114D0D4D4D4D100060
:101A4000FFF7A6F801E0FFF7B5F8010004D140E088
:101A5000FFF7C2F8F9E71146606A37F81000B1FBEA
:101A6000F0F04100606801EB5001B1FBF0F0A0F133
:101A7000100141452CD84FF6F0710140C0F34200EF
:101A800001432068C16024E0092821D2DFE800F08A
:101A9000050912200E2020201100FFF779F802E03E
:101AA00016E0FFF787F8010004D112E0FFF794F881
:101AB000F9E71146606A37F81000B1FBF0F1606891
:101AC00001EB5001B1FBF0F0A0F1100141450AD942
:101AD00001250120A4F86A0024F8680F2846A660B2
:101AE000E660BDE8F08180B299E700000080004028
:101AF000F369FFCFFFF4FF110038014000100240EE
:101B00000044004000480040004C00400024F40025
:101B1000341C0008FFFC0F002DE9F0479A461746D9
:101B20000E4604464FF000094FF02008089D4AE099
:101B3000681C48D0FEF70AFDA0EB0A00A8422AD88C
:101B40004DB32068016849073DD5C069C043000511
:101B500039D421684FF400600862206850E8001F03
:101B600021F4D07140E80012002AF6D12068083034
:101B700050E8001F21F0010140E80012002AF5D1D1
:101B800044F8848FC4F80480C4F8088004F8049CE6
:101B90000320BDE8F087216851E8000F20F4D070E1
:101BA00041E80002002AF6D12068083050E8001F02
:101BB00021F0010140E80012002AF5D144F8848F99
:101BC000C4F80480E2E72068C06936EA000004D067
:101BD0000020B842ACD00020DBE70120F9E7FEE7A7
:101BE0000907090E002804DB00F1E02080F800144A
:101BF000704700F00F0000F1E02080F8141D7047DE
:101C000002E008C8121F08C1002AFAD170477047C5
:101C1000002001E001C1121F002AFBD17047FEF72E
:101C2000A3FCFFF74BFDFFF74FFCFFF76BFCFFF743
:101C3000B1FCFEE7010002000400060008000A00F3
:101C40000C00100020004000800000010101010391
:101C5000070100000804020408010101000000005F
:101C6000000000000102030406070809000000004C
:101C700001020304941C0008000000201000000072
:101C8000001C0008A41C000810000020B80400007C
:101C9000101C0008100000000100000000000000FF
:041CA0000024F40028
:04000005080001D915
:00000001FF
