:020000040800F2
:1000000008050020F1010008FB220008611C00081F
:10001000F9220008290300080B2D00080000000049
:10002000000000000000000000000000132600088F
:100030005907000800000000FD220008BD26000846
:100040000B0200080B0200080B0200080B0200085C
:100050000B0200080B0200080B0200080B0200084C
:100060000B0200080B0200080B0200080B0200083C
:100070000B0200080B0200080B0200080B0200082C
:100080000B020008000000000B0200080B02000831
:100090000B0200080B0200080B0200080B0200080C
:1000A0000B0200080B0200080B0200080B020008FC
:1000B000392700080B0200080B0200080B02000899
:1000C0000B0200080B0200080B0200080B020008DC
:1000D0000B0200080B0200080B0200080B020008CC
:1000E0000B0200080B0200080B0200080B020008BC
:1000F0000B0200080B0200080B02000800000000C1
:10010000000000000B020008000000000B020008C5
:100110000B020008000000000B0200080B020008A0
:100120000B0200080B0200080B0200080B0200087B
:100130000B02000800000000000000000B02000895
:100140000B0200080B020008000000000000000085
:10015000000000000000000000000000000000009F
:100160000000000000000000000000000B0200087A
:100170000B0200080000000000000000000000006A
:10018000000000000B02000800000000000000005A
:10019000000000000000000000000000000000005F
:1001A00000000000000000000B0200080B02000825
:1001B0000B0200080B0200080B0200080000000000
:1001C000000000000B02000800000000000000001A
:1001D0000B0200080B020008DFF810D000F092F8C4
:1001E00000480047D92E0008AFF300800805002022
:1001F0000648804706480047FEE7FEE7FEE7FEE7C1
:10020000FEE7FEE7FEE7FEE7FEE7FEE72927000838
:10021000D90100082DE9F05F0546002092469B4673
:1002200088460646814640241BE02846414647460C
:10023000224600F057F853465A46C01A914110D34F
:1002400011461846224600F03EF82D1A67EB0108C9
:100250004F4622460120002100F035F817EB000937
:100260004E41201EA4F10104DFDC484631462A46F7
:100270004346BDE8F09FD2B201E000F8012B491ED1
:10028000FBD270470022F6E710B513460A46044633
:100290001946FFF7F0FF204610BD30B50B4601466A
:1002A00000202022012409E021FA02F59D4205D315
:1002B00003FA02F5491B04FA02F52844151EA2F1BF
:1002C0000102F1DC30BD202A04DB203A00FA02F101
:1002D000002070479140C2F1200320FA03F3194334
:1002E00090407047202A04DB203A21FA02F00021D6
:1002F000704721FA02F3D040C2F120029140084336
:1003000019467047064C074D06E0E06840F00103CF
:1003100094E8070098471034AC42F6D3FFF760FF2B
:100320006041000880410008FEE700002DE9F84F19
:100330004FF0000A5646D346D1465546FB48CDF805
:1003400000A001F0DFF9FAA1182001F0B3FDD046BA
:10035000FC4F0A2401F09EFC01286ED002286ED0CA
:10036000BAF1010FF9D000BFBBF1010FF5D0BAF11E
:10037000020FEFD1009959EA010063D0B9F1010FE2
:100380007ED0B9F1020FE5D10029E3D14FF0000989
:100390001F2001F02BFE4FF4784001F03BFEF8687F
:1003A000532190FBF4F03030C2B2782001F076FD9A
:1003B000F86890FBF4F104FB11003030C2B2432125
:1003C000782001F06BFD1F2001F010FE4FF6FF704A
:1003D00001F020FE7868B32190FBF4F03030C2B217
:1003E000782001F05BFD786890FBF4F104FB1100CC
:1003F0003030C2B2A321782001F050FDB8688321CB
:1004000090FBF4F03030C2B2782001F047FDB868BC
:1004100090FBF4F104FB11003030C2B2732178205C
:1004200001F03CFD01F036FC01287DD002287CD093
:1004300003287BD004287AD130E164E1FFE74FF054
:10044000020A91E74FF001091F2001F0CFFD4FF4A0
:10045000784001F0DFFD7868B32190FBF4F0303094
:10046000C2B2782001F01AFD786890FBF4F104FB29
:1004700011003030C2B2A321782001F00FFD00E05E
:1004800073E01F2001F0B2FD4FF6FF7001F0C2FDD6
:10049000B868832190FBF4F03030C2B2782001F0CC
:1004A000FDFCB86890FBF4F104FB11003030C2B2DF
:1004B0007321782001F0F2FCF868532190FBF4F0EE
:1004C0003030C2B2782001F0E9FCF86890FBF4F11A
:1004D00004FB11003030C2B24321782001F0DEFC71
:1004E00001F0D8FB01280FD002280BD0032802D03E
:1004F00004280AD102E07868401C01E07868401EB8
:10050000786002E0012500E001267868182828D0EC
:10051000002801DA172078601F2001F067FD4FF4F2
:10052000784001F077FD03E0BEE0BBE0B3E0BCE063
:100530007868B32190FBF4F03030C2B2782001F03B
:10054000ADFC786890FBF4F104FB11003030C2B2CE
:10055000A321782001F0A2FC012D05D0012EBFD1EE
:100560008FE0C7F80480D7E70025009800287FF4C3
:10057000F1AE4FF002091F2001F038FD4FF4784032
:1005800001F048FDB868832190FBF4F03030C2B22E
:10059000782001F083FCB86890FBF4F104FB1100B3
:1005A0003030C2B27321782001F078FC1F2001F0B6
:1005B0001DFD4FF6FF7001F02DFD7868B32190FB13
:1005C000F4F03030C2B2782001F068FC786890FB1B
:1005D000F4F104FB11003030C2B2A321782001F005
:1005E0005DFCF868532190FBF4F03030C2B2782003
:1005F00001F054FCF86890FBF4F104FB110030307A
:10060000C2B24321782001F049FC00BF01F042FB57
:1006100001280FD002280BD0032802D004280AD1C9
:1006200002E0B868401C01E0B868401EB86002E013
:10063000012500E00126B8683C2827D0002801DA0F
:100640003B20B8601F2001F0D1FC4FF4784001F04E
:10065000E1FCB868832190FBF4F03030C2B278201E
:1006600001F01CFCB86890FBF4F104FB1100303081
:10067000C2B27321782001F011FC012D09D0012EA6
:10068000C4D14FF0010BCDF800B063E6C7F8088085
:10069000D8E700257AE6F868401C01E0F868401EBB
:1006A000F86002E0012500E00126F8683C2825D02A
:1006B000002801DA3B20F8601F2001F097FC4FF47E
:1006C000784001F0A7FCF868532190FBF4F030303B
:1006D000C2B2782001F0E2FBF86890FBF4F104FB71
:1006E00011003030C2B24321782001F0D7FB012D38
:1006F00007D0012E7FF496AEB3462BE6C7F80C80E8
:10070000DAE7002526E61F2001F070FC4FF6FF70A7
:1007100001F080FC182001F069FB0BA1182001F00A
:10072000C9FBBDE8F84F014800F0B0BF2C00002025
:1007300020202020205254432D53455454494E47E5
:100740000000000000000020202020202020202089
:100750004D41494E000000007047002240F6B8337A
:1007600006E00021491C89B29942FBD3521C92B287
:100770008242F6D3704772B6FEE7000070B50446B9
:1007800000F03CF90546601C02D00448406804446F
:1007900000F034F9401BA042FAD370BD10000020D5
:1007A0002DE9F04FDFF82092002301260324A9F160
:1007B000040B85B00F2709F1040AABF1040EFAE02F
:1007C00006FA03F52A407CD091F804C00CF0030C23
:1007D000BCF1010F02D0BCF1020F26D1D0F808C045
:1007E000CDF800C04FEA430C04FA0CF8CDF810C065
:1007F000DDF800C02CEA080CCDF800C0D1F80C8060
:10080000DDF810C008FA0CF8DDF800C048EA0C0862
:10081000C0F80880D0F804C02CEA050C0D79C5F3A7
:1008200000159D4045EA0C0545600D79ED43AD0787
:100830000ED0C5684FEA430804FA08FC25EA0C0507
:10084000D1F808C00CFA08FC4CEA050CC0F80CC042
:100850000D7905F00305022D16D1DD0800EB850C9E
:10086000CDF808C0DCF820805D074FEAD56C07FAA8
:100870000CF528EA05080D6905FA0CF5DDF808C045
:1008800045EA0805CCF8205005684FEA430CCDF83E
:1008900008C004FA0CFC25EA0C0591F804C00CF021
:1008A0000308DDF808C008FA0CF848EA0508C0F8A3
:1008B00000804D6815F4403F7CD0444DD5F860C0B1
:1008C00000E077E04CF0010CC5F860C02D6E23F01D
:1008D000030C05F0010500953D4D65440295AD689A
:1008E0004FEA837C4FEA1C7807FA08FC25EA0C05DE
:1008F000B0F1904F06D0DFF8DCC0604505D14FF075
:10090000010C20E04FF0000C1DE0DFF8CCC060458A
:1009100002D14FF0020C16E0DFF8C0C0604502D1F2
:100920004FF0030C0FE0DFF8B8C0604502D14FF084
:10093000040C08E0DFF8ACC0604502D14FF0050CB4
:1009400001E04FF0060C0CFA08FC4CEA050C029D85
:10095000C5F808C0D9F80050CC46D1F804809543BA
:100960005FEAC82800D51543CCF80050DAF80050EB
:10097000D446D1F8048095435FEA882800D5154312
:10098000CCF80050DBF80050DC46D1F804809543E9
:100990005FEA883800D51543CCF80050DEF80050E7
:1009A000F446D1F8048095435FEAC83800D5154372
:1009B000CCF800505B1C0A6832FA03F57FF400AFF4
:1009C00005B0BDE8F08F00000804014000100240AF
:1009D000000001400004004800080048000C0048E6
:1009E00000100048001400480069084000D00120B1
:1009F00070470AB181617047816270470148806821
:100A000070470000100000200248816842681144CD
:100A1000816070471000002010B50024032000F012
:100A200073F80F2000F008F808B1012401E000F08D
:100A300025F8204610BD000070B50E4E0546002476
:100A4000706898B14FF47A71B1FBF0F00A49096807
:100A5000B1FBF0F000F064FD40B9102D06D2002289
:100A60002946501E00F030F8356000E00124204691
:100A700070BD0000100000201C0000200A4882B059
:100A8000016E41F001010166016E01F0010100916A
:100A9000816D41F080518165806D00F08050009043
:100AA00002B000F0A1B8000000100240002809DBED
:100AB00000F01F02012191404009800000F1E02078
:100AC000C0F8001170470000F0B40E4B1B680C46D4
:100AD000C3F30223C3F10705042D00D90425191D12
:100AE000072901D2002300E0DB1E012606FA05F1EA
:100AF000491E214099409E40761E16403143F0BC6D
:100B000002F014B90CED00E0064900F00702086895
:100B10004FF6FF03184040EA0220034A10430860E2
:100B2000704700000CED00E00000FA052B492C4B4B
:100B30000A6832214A432B4940B1B0F5007F08686A
:100B400029D020F4C06040F480602CE00868C0F335
:100B50004120022804D051F8800F20F4807022E058
:100B6000D1F8800020F48070C1F88000086820F47B
:100B7000C06040F400700860B2FBF3F0401C00E07D
:100B8000401E4A69520501D50028F9D1486940053F
:100B90000AD503207047C0F34120022806D051F83F
:100BA000800F40F48070086000207047D1F880000A
:100BB00040F48070C1F88000086820F4C06040F400
:100BC00000700860B2FBF3F0401C00E0401E4A6970
:100BD0005205DBD50028F9D1D8E700001C00002021
:100BE00040420F00007000400248816841F480419B
:100BF00081607047007000402DE9F84304460068AA
:100C000000269D4D00035ED5A86D0027C00008D4C6
:100C1000A86D40F08050A865A86D012700F08050B5
:100C20000090DFF85892D9F8001041F48071C9F8AB
:100C30000010FFF7E3FE804606E000BFFFF7DEFE90
:100C4000A0EB080002282BD8D9F80000C005F5D584
:100C5000D5F8900010F4407014D0216C814211D06E
:100C6000D5F89000D5F8901020F4407041F4803110
:100C7000C5F89010D5F8901021F48031C5F8901087
:100C8000C5F89000C00711D0FFF7B8FE804641F2CA
:100C9000883907E0FFF7B2FEA0EB0801494501D90A
:100CA00003260BE0D5F890008007F3D5D5F8900027
:100CB000216C20F440700843C5F890001FB1A86D66
:100CC00020F08050A8652078C00707D0D5F88800AC
:100CD000616820F003000843C5F888002078800789
:100CE00007D5D5F88800A16820F00C000843C5F8A6
:100CF00088002078400707D5D5F88800E16820F003
:100D000030000843C5F888002078000707D5D5F8DB
:100D10008800216920F0C0000843C5F888002078C9
:100D2000800607D5D5F88800616920F44060084343
:100D3000C5F888002078400607D5D5F88800A16955
:100D400020F440500843C5F888002078000607D5F5
:100D5000D5F88800E16920F440400843C5F88800D0
:100D60002088C00507D5D5F88800216A20F44030D6
:100D70000843C5F888002088800507D5D5F8880085
:100D8000616A20F440200843C5F8880020884005A7
:100D90000FD5D5F88800A16A20F440100843C5F8A3
:100DA0008800A06AB0F5801F03D1E86840F4801085
:100DB000E860208800050FD5D5F88800E16A20F4A6
:100DC00040000843C5F88800E06AB0F5800F03D101
:100DD000E86840F48010E8602088C0040FD5D5F89A
:100DE0008800216B20F040700843C5F88800206B14
:100DF000B0F1807F03D1E86840F48010E86020887B
:100E00004FF0006180040ED5D5F88800626B20F0A9
:100E100040601043C5F88800606B884203D1E868E1
:100E200040F48010E860208840040ED5D5F8880092
:100E3000A26B20F040601043C5F88800A06B884288
:100E400003D1E86840F48010E860208800040FD5E2
:100E5000D5F88800E16B20F040500843C5F88800C1
:100E6000E06BB0F1805F03D1E86840F48030E86067
:100E70003046BDE8F88300000010024000700040DA
:100E80002DE9F0470E4605004FF0000725D0DFF8AA
:100E9000AC81D8F8000000F00F00B0420CD2D8F8B6
:100EA000001021F00F013143C8F80010D8F80000FD
:100EB00000F00F00B04210D12968614CC80741F220
:100EC000883A5AD06868DFF87C91032808D0022855
:100ED00020682DD0400500282CDB0120BDE8F087DC
:100EE00020688001F9D5E06800F00302E068C0F3F3
:100EF0000310401C032A19D0534A00BFB2FBF0F084
:100F0000E268C2F306225043E268C2F34162521C17
:100F10005200B0FBF2F0484517D9A06810F0F00F6E
:100F20000CD0880711D5A86840B10EE0474AE5E724
:100F30008003D0E700F0B6F8484506D9A06820F055
:100F4000F00040F08000A0608027A068696820F071
:100F500003000843A060FFF751FD814606E000BF93
:100F6000FFF74CFDA0EB090151453AD8A06869682C
:100F700000F00C00B0EB810FF2D12868810714D586
:100F8000400703D5A06840F4E060A060287800071F
:100F900005D5A06820F4605040F4E060A060A0682F
:100FA000A96820F0F000084304E0802F03D1A06876
:100FB00020F0F000A060D8F80010404601F00F01CA
:100FC000B14216D9016821F00F0131430160FFF7EA
:100FD00015FD074607E000BFFFF710FDC11B514597
:100FE00001D903207AE7D8F8000000F00F00B042E2
:100FF000F2D12878400705D5A068E96820F4E060C0
:101000000843A0602878000706D5A068296920F465
:10101000605040EAC100A06000F044F8A1680C4AAA
:10102000C1F30311515C01F01F01C8400949086078
:1010300009480068BDE8F047FFF7FEBC0020024009
:101040000010024000B4C4040024F40000366E0115
:10105000782F00081C0000201000002005480649D9
:1010600000688968054AC1F30221515C01F01F0143
:10107000C84070471C00002000100240882F000864
:101080000548064900688968054AC1F3C221515CD8
:1010900001F01F01C84070471C00002000100240F2
:1010A000882F0008184910B58868C0F381021748D6
:1010B000012A0BD08A68164BC2F38102022A06D09D
:1010C0008A68C2F38102032A03D0002010BD1846AB
:1010D00010BDCA6802F00304CA68C2F30312521CAE
:1010E000032C02D0B0FBF2F001E0B3FBF2F0CA68CF
:1010F000C968C2F306225043C1F34161491C49004B
:10110000B0FBF1F010BD0000001002400024F4001C
:1011100000366E012DE9F84304007AD02078FA4DAC
:10112000C00747D0A868E96800F00C0001F003018F
:101130000C2802D0082817D001E0032914D06068D9
:10114000B0F5803F17D0B0F5A02F286817D020F455
:1011500080302860286820F4802028606068E0B132
:10116000FFF74CFC064614E02868800322D560682F
:101170000028D2D01EE0286840F48030EDE740F42B
:1011800080202860F7E700BFFFF738FC801B642849
:1011900070D828688003F7D50CE0FFF72FFC0646CF
:1011A00005E000BFFFF72AFC801B6428F0D8286800
:1011B0008003F7D4207880074CD5A868E96800F050
:1011C0000C0001F003010C2802D004280DD001E02E
:1011D00002290AD0E068002828682BD040F48070EB
:1011E0002860FFF70BFC064619E02868400502D589
:1011F000E068002891D06868217C20F0FE4040EA39
:1012000001606860C1480068FFF716FC002800D143
:1012100020E076E1FFF7F2FB801B0228B8D82868AF
:101220004005F7D56868217C20F0FE4040EA016067
:1012300068600FE020F480702860FFF7DFFB06464F
:1012400005E000BFFFF7DAFB801B0228A0D8286862
:101250004005F7D42078000729D560690028D5F823
:10126000940013D040F00100C5F89400FFF7C6FBCE
:10127000064606E090E000BFFFF7C0FB801B022897
:1012800086D8D5F894008007F6D510E020F001004C
:10129000C5F89400FFF7B2FB064604E0FFF7AEFB8B
:1012A000801B022878D8D5F894008007F6D42078DF
:1012B000400761D5A86D0026C00008D4A86D40F095
:1012C0008050A865A86D012600F0805000909048DD
:1012D0000168C90511D40168804641F4807101603C
:1012E000FFF78CFB074604E0FFF788FBC01B0228D2
:1012F00052D8D8F80000C005F6D5A068012815D04E
:101300000528D5F8900016D020F00100C5F890000F
:10131000D5F8900020F00400C5F89000A06841F2D4
:101320008838B8B1FFF76AFB07460EE0D5F89000A1
:1013300040F00100F0E740F00400C5F89000F5E748
:10134000FFF75CFBC11B414526D8D5F8900080070C
:10135000F6D50CE0FFF752FB074604E0FFF74EFB23
:10136000C11B414518D8D5F890008007F6D41EB1AE
:10137000A86D20F08050A8652078800629D5A06946
:101380000028D5F8980013D040F00100C5F8980067
:10139000FFF734FB064606E077E000BFFFF72EFBC1
:1013A000801B022877D8D5F898008007F6D510E082
:1013B00020F00100C5F89800FFF720FB064604E086
:1013C000FFF71CFB801B022865D8D5F89800800722
:1013D000F6D4E069F0B3A968C1F38101032961D0B3
:1013E0000228286820F0807028600BD0E86820F080
:1013F0000300E860E86847490840E860FFF7FEFA44
:1014000004464BE0FFF7FAFA064604E0FFF7F6FA67
:10141000801B02283FD828688001F7D4F4E908012E
:101420006FF00F0202EB01110843218A52044908B0
:1014300002EB4151A26841EA02210843217D4FF0AD
:101440007E42490802EB41610843217B40EAC160CA
:10145000E96800E062E0304A11400843E86028682B
:1014600040F080702860E86840F08070E860FFF726
:10147000C5FA044605E000BFFFF7C0FA001B0228CA
:1014800009D828688001F7D548E004E0FFF7B6FAEC
:10149000001B022802D90320BDE8F88328688001D8
:1014A000F4D43BE00128F7D0E868226A00F0030199
:1014B000914226D1616A00F0F0020901103991428F
:1014C0001FD1A26A00F4FE41B1EB022F19D194F8AA
:1014D0002C2000F07841B1EBC26F12D1218E00F4C4
:1014E000C00249084905A1F50011914209D194F8BB
:1014F000341000F0C06049084906A1F10071814232
:101500000CD00120C8E700000010024010000020AD
:1015100000700040FFFFEEFE0C809F010020BBE743
:1015200010B5401EB0F1807F01D3012010BD4FF0F7
:10153000E02460610F21601701F0F8FB0020A0613A
:1015400007202061002010BD70477047704770472A
:1015500070477047F0B590F83C20012A3AD0012539
:1015600080F83C50022280F83D2003685A689C684D
:10157000194E1A4FB34201D0BB4204D122F4700C71
:101580004A6842EA0C02DFF858C002EA0C02D1F8BD
:1015900000C04CEA020CC3F804C00268B2420DD08D
:1015A000B2F1804F0AD00F4B9A4207D00E4B9A42AD
:1015B00004D0BA4202D00D4B9A4204D1896824F07B
:1015C00080031943916080F83D50002180F83C1061
:1015D0000846F0BD0220F0BD002C0140003401405F
:1015E0008FFFFFFD00040040000800400040014064
:1015F000704710B5040003D094F83D0010B107E027
:10160000012010BD002084F83C00204600F022F8A4
:10161000022084F83D00211D206801F093F801208C
:1016200084F8480084F83E0084F83F0084F84000C5
:1016300084F8410084F8420084F8430084F84400B0
:1016400084F8450084F8460084F8470084F83D009B
:10165000002010BD08B50068B0F1804F12D10A48D3
:10166000816D41F001018165806D002200F0010073
:10167000009011461C20FFF727FABDE808401C2007
:10168000FFF714BA08BD00000010024090F83D10AA
:10169000012901D001207047022180F83D10016826
:1016A000CA6842F00102CA600068104988420ED040
:1016B000B0F1804F0BD00E49884208D00D498842C6
:1016C00005D00D49884202D00C49884207D1816873
:1016D0000B4A1140062906D0B1F5803F03D00168BE
:1016E00041F001010160002070470000002C014022
:1016F0000004004000080040003401400040014068
:10170000070001000168CA6822F00102CA6001688E
:101710000A6A41F211131A4207D10A6A9B001A425F
:1017200003D10A6822F001020A60012180F83D100D
:101730000020704770B5044690F83C000025012851
:1017400014D0012684F83C60022084F83D00226811
:101750009068364B184020F47F40906008687028ED
:101760002ED010DC10F00F0F03D021E04FF002005C
:1017700070BD4FEA2012072A1AD2DFE802F0525257
:1017800052524A3840002A4BC21A984249D009DCCA
:10179000B0F5805F0DD0B0F5005F1CD0B0F1101F28
:1017A00006D13EE0102A3CD0202A3AD0502A38D028
:1017B000012584F83D60002084F83C00284670BD77
:1017C000CB68D1E90121206801F014F82068816814
:1017D00041F0770109E0CB68D1E90121206801F0EF
:1017E00009F82068816841F480418160E1E7CA68B6
:1017F0004968206801F012F85021206806E0CA68A4
:101800004968206801F01BF86021206800F0FCFFA7
:10181000CFE7CA684968206801F000F840212068D5
:10182000F4E7226801461046F0E7000088FFCEFF8B
:1018300020001000704770B50446006801694FF041
:101840000005C943890715D4C168C943890711D464
:10185000E91E016101202077206880698007204609
:1018600002D0FFF7E7FF04E000F0E3F8204600F0C5
:10187000E1F8257720680169C943490717D4C16891
:10188000C943490713D46FF0040101610220207796
:101890002068806910F4407F204602D0FFF7CAFF1D
:1018A00004E000F0C6F8204600F0C4F82577206870
:1018B0000169C943090716D4C168C943090712D48D
:1018C0006FF008010161042020772068C06980075B
:1018D000204602D0FFF7AEFF04E000F0AAF8204651
:1018E00000F0A8F8257720680169C943C90617D414
:1018F000C168C943C90613D46FF010010161082003
:1019000020772068C06910F4407F204602D0FFF79E
:1019100091FF04E000F08DF8204600F08BF8257769
:1019200020680169C943C90708D1C168C943C9070B
:1019300004D1891E0161204600F07EF8206801690B
:10194000C943090609D4C168C943090605D46FF023
:10195000800101612046FFF7F8FD20680169C94355
:10196000C90509D4C168C943090605D46FF480715B
:1019700001612046FFF7E8FD20680169C943490677
:1019800009D4C168C943490605D46FF0400101611B
:10199000204600F085F820680169C943890609D40A
:1019A000C168C943890605D46FF020010161204652
:1019B000FFF7CCFD20680169C943C90209D4C16899
:1019C000C943C90205D46FF4801101612046FFF7B5
:1019D000BFFD20680169C943890209D4C168C943B0
:1019E000890205D46FF4001101612046FFF7AFFDB5
:1019F00020680169C943490209D4C168C943490241
:101A000005D46FF4800101612046FFF7A2FD206834
:101A10000169C94309020BD4C168C943090207D44B
:101A20006FF4000101612046BDE87040FFF7E0BDA2
:101A300070BD70477047000008B50068B0F1804F76
:101A40002AD1164801230021C268521CC2603C2AD8
:101A500003D00278012A02D007E00370C160017050
:101A60008268521C82603C2A03D04278012A02D04C
:101A70000AE04370816041704268521C4260182A3B
:101A800002D141608160C160017B0091037A0279DB
:101A9000B321782000F0BEFD08BD0000000000204A
:101AA000704790F88010012918D0012180F880102B
:101AB0002421C0F8841050F8641B0A680B6823F0D6
:101AC00001030B6022F000510022026050F8643CD8
:101AD000196020210162027710467047022070478A
:101AE00070B5044690F8800001281DD0012084F8CC
:101AF00080002420C4F8840020680568026822F071
:101B0000010202602068826822F060620A438260FB
:101B1000204600F0A7FE206805602020C4F884005D
:101B2000002084F8800070BD022070BD70B50446AE
:101B300090F8800001281DD0012084F88000242026
:101B4000C4F8840020680568026822F0010202607F
:101B50002068826822F060420A438260204600F0DA
:101B600081FE206805602020C4F88400002084F8ED
:101B7000800070BD022070BD10B5040003D0D4F801
:101B8000840010B107E0012010BD002084F880001F
:101B9000204600F027F82420C4F88400206801685B
:101BA00021F001010160204600F012FF0128EBD076
:101BB000A06A10B1204600F077FE2068416821F449
:101BC000904141602068816821F02A01816020688D
:101BD000016841F0010101602046BDE8104000F0BD
:101BE000C7BE000010B598B00446142111A8FEF736
:101BF00049FB44216846FEF745FB174920688842A7
:101C000028D101200024CDE900046846FEF7F4FF46
:101C100008B1FEF7B0FD1148016E41F48041016644
:101C2000016E01F480411691C16C41F00101C16463
:101C3000C06C11A900F0010016904FF4C060119023
:101C40000220CDE912040720CDE914404FF0904066
:101C5000FEF7A6FD18B010BD00380140001002408C
:101C6000FEE7000000B585B014216846FEF70AFBC8
:101C7000C02000900120019002900220039069464C
:101C80000248FEF78DFD05B000BD000000040048CD
:101C9000FFF7E8BF70B5334D002401212846FEF759
:101CA000A3FE90B90A20FEF769FD01212846FEF740
:101CB0009BFE50B901212846FEF796FE0028F9D078
:101CC0000124214628A001F021F802212846FEF730
:101CD0008BFE90B90A20FEF751FD02212846FEF73F
:101CE00083FE50B902212846FEF77EFE0028F9D077
:101CF000022421461CA001F009F804212846FEF721
:101D000073FE90B90A20FEF739FD04212846FEF73C
:101D10006BFE50B904212846FEF766FE0028F9D074
:101D20000324214610A000F0F1FF4FF0904501215F
:101D30002846FEF759FE90B90A20FEF71FFD012143
:101D40002846FEF751FE50B901212846FEF74CFE09
:101D50000028F9D00424214603A000F0D7FF204634
:101D600070BD0000000400482564000000B585B087
:101D700014216846FEF786FA4FF6FF7000900020A7
:101D80000321CDE90201019069460248FEF708FDF2
:101D900005B000BD0008004800B585B014216846B4
:101DA000FEF770FA4FF6FF700090012001900320BB
:101DB00003900020029069460248FEF7F1FC05B04E
:101DC00000BD00000008004870B50024064621460A
:101DD000204600F013F900F051F94FF496353046E3
:101DE00000F020F9641CAC42F9D370BD01A100F0F1
:101DF00061B800002020202020202020202020204A
:101E000020202020202020200000000030B587B0B6
:101E100014216846FEF736FA1E48C16C41F00401F1
:101E2000C164C16C01F004010591C16C41F0010174
:101E3000C164C16C01F001010591C16C41F0020166
:101E4000C164C06C012500F0020005904FF4487099
:101E5000CDE9000500240394694602940E48FEF77C
:101E60009FFC280203940090CDE901544FF0904468
:101E700069462046FEF794FCFFF78EFFA06940F408
:101E80008070A06104481830016841F40871016055
:101E900007B030BD0010024000040048203AD2B222
:101EA000034B02EB420203EB021200F019B80000F0
:101EB000902F0008F0B50E460746002540F23F146B
:101EC00007E021463846FFF7E9FF103C6D1CA4B23D
:101ED000761C3278002A01D0142DF2D3F0BD000018
:101EE0002DE9F04791468A460026044600F086F820
:101EF000DFF84080012700BF00F0C0F85FF0000568
:101F000039F8160007FA05F10842404601D1408829
:101F100000E0008800F086F86D1C102DF0D3641CE2
:101F2000E4B25146204600F069F8761C182EE3D33F
:101F3000BDE8F0872000002010B5FFF767FF002004
:101F400000F014F8084CA080A088A0F502413039B8
:101F500006D000F05DFA002000F008F8A08010BD67
:101F600000F0CDF9F7E700002000002070B51D4912
:101F70000A6842F400720A600A6842F480720A60D9
:101F8000184C103C226842F020022260164A106071
:101F9000086840F02000086000BF00BF00BF206854
:101FA00040F020002060206840F480702060FFF73F
:101FB000DDFE4FF09041886A40F48070886200BF77
:101FC00000BF00BF0848001F006885B2886940F460
:101FD00080708861FFF7E0FE206840F400702060A8
:101FE000284670BD280400481408004801B5BDF813
:101FF00000000149488008BD2000002010B50C46B3
:102000000146202000F068F82146BDE8104021205C
:1020100000F062B801B5BDF800000149088008BDB4
:1020200020000020134A116841F400711160114929
:1020300010390B6843F480730B600B6843F0200386
:102040000B600D4B1860106840F02000106000BF5E
:1020500000BF00BF086840F020000860086840F436
:102060008070086000BF00BF00BF086840F40070C7
:10207000086070472804004814080048144908689C
:1020800040F400700860086840F4807008601048F0
:102090001038026842F0200202600E4B22221A60C1
:1020A0000A6842F020020A6000BF00BF00BF01685A
:1020B00041F020010160016841F48071016000BFBE
:1020C00000BF00BF016841F400710160704700006B
:1020D0002804004814080048184B10B51A6842F448
:1020E00000721A601A6842F480721A60134A103A39
:1020F000146844F020041460114C2060186840F00B
:102100002000186000BF00BF00BF106840F0200032
:102110001060106840F4807010602160186840F012
:102120002000186000BF00BF00BF106840F0200012
:102130001060106840F48070106010BD28040048E2
:1021400014080048F0B587B014216846FEF79AF8E5
:102150003048C16C41F02001C164C16C01F0200124
:102160000591C16C41F00101C164C16C01F0010134
:102170000591C16C41F00201C164C16C01F0020122
:102180000591C16C41F00401C164C16C01F004010E
:102190000591C16C41F00801C164C06C1E4E00F095
:1021A0000800059000224FF440713046FEF721FCF4
:1021B000012291023046FEF71CFC184F0122042137
:1021C0003846FEF716FC01250024CDE90054694687
:1021D0004FF090400295FEF7E3FA07208DE83100BA
:1021E00069460F48FEF7DCFA4FF4E0600090CDE955
:1021F0000154694630460394FEF7D2FA0420009059
:10220000CDE90154694638460394FEF7C9FA07B090
:10221000F0BD00000010024000080048000C00481B
:102220000004004810B588B00024174800940194B9
:1022300002940394049405944FF080410694016045
:10224000AA21C0E901141149C0E903148021816168
:10225000FFF7CFF908B1FEF78EFA4FF480500090E7
:1022600069460948FFF766FA08B1FEF784FA049454
:1022700004A905480694FFF76DF9002801D0FEF780
:102280007AFA08B010BD00002C00002040420F0078
:10229000184810B5164901604FF4E1314160002142
:1022A00081600C22C160C0E904128161C1610162D8
:1022B00041628162FFF760FC08B1FEF75CFA002121
:1022C0000C48FFF733FC08B1FEF755FA0021094826
:1022D000FFF706FC08B1FEF74EFA0648FFF7E1FBF0
:1022E000002803D0BDE81040FEF745BA10BD00003D
:1022F0000038014078000020FEE7FEE7704730B567
:1023000001210020FFF7E8FE4FF47A70FEF725FA6E
:1023100000210120FFF7E0FE41F290711020FFF74D
:10232000DBFE4FF41C516020FFF7D6FE0121612037
:10233000FFF7D2FE02214620FFF7CEFE48F2100141
:102340001320FFF7C9FE48F2FE011220FFF7C4FE7A
:102350004FF4A0610220FFF7BFFE41F230010320DD
:10236000FFF7BAFE40F2033421463020FFF7B4FEF7
:1023700021463120FFF7B0FE21463220FFF7ACFEA8
:10238000E51E29463320FFF7A7FE03213420FFF77F
:10239000A3FE21463520FFF79FFE14213620FFF7CC
:1023A0009BFE21463720FFF797FE21463820FFF796
:1023B00093FE21463920FFF78FFE29463A20FFF78A
:1023C0008BFE03213B20FFF787FE21463C20FFF7D1
:1023D00083FE4FF4A0513D20FFF77EFE4FF40071C5
:1023E0009220FFF779FE21469320FFF775FE40F615
:1023F0000D019020FFF770FE41F218010320FFF756
:102400006BFEBDE8304040F273110720FFF764BE59
:1024100010B543F20801E320FFF75EFE1221E7202A
:10242000FFF75AFE41F23121EF20FFF755FE002160
:102430000120FFF751FE4FF4E0610220FFF74CFE50
:1024400041F230010320FFF747FE00210420FFF78F
:1024500043FE40F207210820FFF73EFE002109203D
:10246000FFF73AFE00210A20FFF736FE00210C207C
:10247000FFF732FE00210D20FFF72EFE00210F2076
:10248000FFF72AFE00211020FFF726FE072111206A
:10249000FFF722FE00211220FFF71EFE002113206D
:1024A000FFF71AFEC820FEF769F941F2906110208B
:1024B000FFF712FE40F227211120FFF70DFE322018
:1024C000FEF75CF91D211220FFF706FE3220FEF711
:1024D00055F94FF400611320FFF7FEFD1421292068
:1024E000FFF7FAFD0B212B20FFF7F6FD3220FEF758
:1024F00045F900212020FFF7EFFD00212120FFF703
:10250000EBFD07213020FFF7E7FD40F20771312096
:10251000FFF7E2FD06213220FFF7DEFD40F20471F5
:102520003520FFF7D9FD41F604713620FFF7D4FDC1
:1025300004213720FFF7D0FD00213820FFF7CCFD24
:1025400040F206713920FFF7C7FD40F201713C20CF
:10255000FFF7C2FD0F213D20FFF7BEFD00215020F7
:10256000FFF7BAFDEF215120FFF7B6FD0021522001
:10257000FFF7B2FD40F23F115320FFF7ADFD4FF4DE
:102580001C516020FFF7A8FD01216120FFF7A4FD89
:1025900000216A20FFF7A0FD00218020FFF79CFDAD
:1025A00000218120FFF798FD00218220FFF794FD94
:1025B00000218320FFF790FD00218420FFF78CFD90
:1025C00000218520FFF788FD10219020FFF784FD72
:1025D00000219220FFF780FD03219320FFF77CFD6F
:1025E0004FF488719520FFF777FD00219720FFF7C2
:1025F00073FD00219820FFF76FFD41F218010320C1
:10260000FFF76AFDBDE8104040F273110720FFF7A5
:1026100063BD70472DE9F04781460A25B2FBF5F00E
:1026200017463030C2B21E460C464846DDF82080C0
:10263000FFF734FCB7FBF5F005FB1072A4F11000B6
:1026400081B248463032FFF729FCA4F1200081B264
:102650003A224846FFF722FCB6FBF5F03030C2B212
:10266000A4F1300081B24846FFF718FCB6FBF5F044
:1026700005FB1062A4F1400081B248463032FFF7FA
:102680000DFCA4F1500081B23A224846FFF706FC47
:10269000B8FBF5F03030C2B2A4F1600081B2484618
:1026A000FFF7FCFBB8FBF5F105FB1182703CA1B212
:1026B0004846BDE8F0473032FFF7F0BBFEF7A4B95B
:1026C00010B594B038216846FDF7DCFD14210EA842
:1026D000FDF7D8FD0020FEF729FA01200090000444
:1026E000032406210190CDE9084102205521CDE9BE
:1026F0000A1007900C900D906846FEF70BFD08B18C
:1027000072B6FEE70F20CDE90E0400201090119064
:10271000129004210EA8FEF7B3FB002801D072B678
:10272000FEE714B010BD00000248016841F47001DA
:102730000160704788ED00E00148FFF77CB80000B9
:102740002C0000202DE9F0430268234B234D244E3A
:10275000244C4FF08049984207D0484505D0A84204
:1027600003D0B04201D0A04203D122F070074A68E2
:102770003A431D4FDFF874C0DFF8748098420DD0E3
:1027800048450BD0A84209D0B04207D0A04205D09E
:10279000B84203D0604501D0404503D122F44075D2
:1027A000CA682A434D6922F080022A4302608A687F
:1027B000C2620A688262984207D0A04205D0B8423D
:1027C00003D0604501D0404501D109690163012171
:1027D0004161BDE8F0830000002C0140000400408E
:1027E0000008004000340140004001400044014026
:1027F0000048014010B5846842EA032224F47F4473
:102800000A432243826010BD8268034B1A400A4388
:1028100042F00701816070478FFFCFFF10B5036A58
:10282000046A24F001040462846924F0F00444EA98
:10283000021423F00A020A438461026210BD10B53B
:10284000036A23F0100303628369046A23F470436C
:1028500043EA023224F0A00343EA011182610162DB
:1028600010BD000030B5416EB9B102689168926840
:10287000C1F342610B4B520F9C5CE50003F108046D
:10288000A25CB5FBF2F2A0F86A205A5C615CD2004F
:10289000B2FBF1F1A0F8681030BD0121A0F86A1078
:1028A000F8E70000682F000890F82810C90706D044
:1028B00001684A68C36A22F400321A434A6090F8F9
:1028C0002810890706D501684A68036B22F4803214
:1028D0001A434A6090F82810490706D501684A68EB
:1028E000436B22F480221A434A6090F828100907AB
:1028F00006D501684A68836B22F400421A434A6095
:1029000090F82810C90606D501688A68C36B22F4BE
:1029100080521A438A6090F82810890606D501680B
:102920008A68036C22F400521A438A6090F82810D7
:10293000490611D501684A68436C22F480121A4393
:102940004A60416CB1F5801F06D101684A68836C0A
:1029500022F4C0021A434A6090F82810090606D5EE
:1029600001684A68C06C22F4002202434A60704742
:10297000F8B500260446C0F88C60FEF73FF805461F
:10298000206800686FF07E47000708D52B460022BC
:102990004FF400112046009700F054F960B9206808
:1029A000006840070AD52B4600224FF480012046DC
:1029B000009700F047F908B10320F8BD2020C4F8C3
:1029C0008400C4F8880044F86C6F00202675F8BDB8
:1029D0002DE9F0410446016880682269E3691043EB
:1029E000626900251A431043DFF82CC20A688B4B3A
:1029F0001A4002430A6020684168E26821F44051AD
:102A0000114341602168A069614501D0226A1043E9
:102A10008A68834B1A4002438A602068C16A626AEE
:102A200021F00F011143C1627E4923687E488B4229
:102A30000DD1D0F8880010F0030006D0012855D041
:102A4000022842D003283FD152E001203DE07749DF
:102A50008B420BD1D0F8880010F00C0035D0042840
:102A600033D0082840D00C282ED141E070498B4249
:102A70000BD1D0F8880010F0300026D0102835D0C7
:102A8000202831D030281FD132E06A498B420BD147
:102A9000D0F8880010F0C00017D0402826D0802839
:102AA00022D0C02810D123E063450DD1D0F8880092
:102AB00010F4406009D0B0F5806F17D0B0F5006F0A
:102AC00012D0B0F5406F13D010205B495B4F002649
:102AD0004FF4004263453BD160B1022813D0042873
:102AE0000BD0082872D10DE00220EEE70420ECE7BD
:102AF0000820EAE7FEF7B2FA01E0FEF7D3FA010098
:102B000001D17CE01146606A37F810206768B1FB9C
:102B1000F2F007EB4703834270D8B0EB073F6DD864
:102B2000002308461946FDF775FB090241EA1061CA
:102B300002027808101871413A460023FDF76AFB3B
:102B40003F4AA0F54071914258D82168C86056E0CC
:102B5000E3694FF6EF7893422CD109284ED2DFE893
:102B600000F00508114D0D4D4D4D1000FEF776FAA1
:102B700001E0FEF785FA010004D140E0FEF792FA89
:102B8000F9E71146606A37F81000B1FBF0F0410038
:102B9000606801EB5001B1FBF0F0A0F1100141457C
:102BA0002CD84FF6F0710140C0F342000143206879
:102BB000C16024E0092821D2DFE800F005091220D5
:102BC0000E2020201100FEF749FA02E016E0FEF781
:102BD00057FA010004D112E0FEF764FAF9E7114652
:102BE000606A37F81000B1FBF0F1606801EB50014A
:102BF000B1FBF0F0A0F1100141450AD901250120F7
:102C0000A4F86A0024F8680F2846A660E660BDE8CC
:102C1000F08180B299E7000000800040F369FFCFA7
:102C2000FFF4FF1100380140001002400044004052
:102C300000480040004C00400024F400502F0008E1
:102C4000FFFC0F002DE9F0479A4617460E46044652
:102C50004FF000094FF02008089D4AE0681C48D05A
:102C6000FDF7CCFEA0EB0A00A8422AD84DB320689D
:102C7000016849073DD5C069C043000539D42168C2
:102C80004FF400600862206850E8001F21F4D07102
:102C900040E80012002AF6D12068083050E8001FF2
:102CA00021F0010140E80012002AF5D144F8848F98
:102CB000C4F80480C4F8088004F8049C0320BDE82C
:102CC000F087216851E8000F20F4D07041E800023D
:102CD000002AF6D12068083050E8001F21F00101D9
:102CE00040E80012002AF5D144F8848FC4F804802B
:102CF000E2E72068C06936EA000004D00020B8424C
:102D0000ACD00020DBE70120F9E7FEE70FB4054B6C
:102D100010B503A9044A029800F028F810BC5DF829
:102D200014FB0000C12E0008280000200907090E2E
:102D3000002804DB00F1E02080F80014704700F068
:102D40000F0000F1E02080F8141D704702E008C871
:102D5000121F08C1002AFAD170477047002001E015
:102D600001C1121F002AFBD1704700002DE9FF4F5F
:102D700089B09B460446002506E025280BD05A461C
:102D80000B999047641C6D1C20780028F5D10DB07C
:102D90002846BDE8F08F0027B8460122474900E0E9
:102DA000074314F8013F203B02FA03F00842F7D131
:102DB00020782E2819D114F8010F47F004072A288B
:102DC0000ED06FF02F022078A0F1300109290CD825
:102DD00008EB880102EB410100EB0108641CF2E7FB
:102DE0000A98641C50F8048B0A9020780028CED0F2
:102DF000642808D0692806D075281ED05A460B9939
:102E000090476D1C58E00A994FF00A0901C90A91D0
:102E1000002802DA40422D2102E0390504D52B2199
:102E20008DF82010012103E0F90704D02021F7E7F5
:102E30008A4608AE0DE00021FAE70A994FF00A0928
:102E400001C90A91F7E74946FDF727FA303106F83C
:102E5000011D0028F7D1ADEB060000F1200978072D
:102E600001D44FF00108C84502DDA8EB090000E0DD
:102E700000208046002706E008A85A46C05D0B994E
:102E800090476D1C7F1C5745F6DB04E030205A4606
:102E90000B9990476D1CB8F10001A8F10108F5DC11
:102EA00005E016F8010B5A460B9990476D1CB9F1D5
:102EB0000001A9F10109F4DC641C65E7092801009F
:102EC00004490A685206FCD5024AC1B20C321160AC
:102ED000704700001C380140FDF79EFDFFF7F0FB36
:102EE000FFF730F9FFF7D4F9FFF79CF9FEF7D0FEB2
:102EF000FFF722F81F20FEF767FF1F20FFF776F885
:102F00004FF6FF70FFF786F809A11820FEF7D2FFF1
:102F10000BA17820FEF7CEFF0C48FEF7B7FB00BFF1
:102F2000FEF7B8FE0128FBD1FDF700FAF8E7000034
:102F300020202020202020204D41494E000000006C
:102F4000202020205254433A000000002C00002092
:102F5000010002000400060008000A000C00100036
:102F60002000400080000001010101030701000072
:102F70000804020408010101000000000000000034
:102F8000010203040607080900000000010203040F
:102F90000000000000000000000000000000000031
:102FA0000000000000000000000000000000000021
:102FB0000000000000000000000000000000000011
:102FC000000080018001800180018001800180017A
:102FD00080018001800180018001800100000000EB
:102FE00080018001000000000000000000000000DF
:102FF00000000000CC00CC00CC00CC00CC00CC0009
:1030000000000000000000000000000000000000C0
:1030100000000000000000000000000000000000B0
:10302000000000000000000000000000600C600CC8
:10303000600C30063006FE1FFE1F300638071803EE
:10304000FE1FFE1F180318038C018C018C01000069
:1030500000008000E003F80F9C0E8C1C8C188C0084
:103060009800F801E007800E801C8C188C189C18C2
:10307000B80CF00FE00380008000000000000000AA
:103080000000000000000E181B0C110C11061106A8
:10309000110311039B018E01C038C06C6044604471
:1030A000304430441844186C0C3800000000000014
:1030B0000000E001F0033807180618063003F0019D
:1030C000F000F8009C310E33061E061C061C063F5D
:1030D000FC73F02100000000000000000000000070
:1030E000000000000C000C000C000C000C000C0098
:1030F00000000000000000000000000000000000D0
:1031000000000000000000000000000000000000BF
:103110000000000200038001C000C00060006000E9
:10312000300030003000300030003000300030001F
:1031300060006000C000C0008001000300020000C9
:10314000000020006000C000800180010003000337
:10315000000600060006000600060006000600063F
:103160000003000380018001C00060002000000017
:10317000000000000000000000000000C000C000CF
:10318000D806F807E001300338070000000000000F
:10319000000000000000000000000000000000002F
:1031A000000000000000000000000000800180011D
:1031B000800180018001FC3FFC3F80018001800193
:1031C00080018001000000000000000000000000FD
:1031D00000000000000000000000000000000000EF
:1031E00000000000000000000000000000000000DF
:1031F000000080018001000100018000000000004B
:1032000000000000000000000000000000000000BE
:103210000000000000000000E007E00700000000E0
:10322000000000000000000000000000000000009E
:10323000000000000000000000000000000000008E
:10324000000000000000000000000000000000007E
:103250000000C000C00000000000000000000000EE
:103260000000000C000C000600060006000300032E
:1032700000038003800180018001C000C000C00005
:10328000600060000000000000000000000000007E
:103290000000E003F007380E180C0C180C180C187E
:1032A0000C180C180C180C180C180C18180C380EDC
:1032B000F007E00300000000000000000000000034
:1032C000000000018001C001F00198018801800127
:1032D00080018001800180018001800180018001E6
:1032E00080018001000000000000000000000000DC
:1032F0000000E003F80F180C0C180C180018001848
:10330000000C000600038001C000600030001800BF
:10331000FC1FFC1F00000000000000000000000077
:103320000000E001F807180E0C0C0C0C000C000655
:10333000C003C007000C001800180C180C18180C5B
:10334000F807E0030000000000000000000000009B
:103350000000000C000E000F000F800DC00C600C70
:10336000600C300C180C0C0CFC3FFC3F000C000CEB
:10337000000C000C00000000000000000000000035
:103380000000F80FF80F180018000C00EC03FC0701
:103390001C0E001C0018001800180C181C0C180E2D
:1033A000F807E0030000000000000000000000003B
:1033B0000000C007F00F381C181818000C00CC03D0
:1033C000EC0F3C0E1C1C0C180C180C18181C380E9A
:1033D000F007E00300000000000000000000000013
:1033E0000000FC1FFC1F000C000600060003800309
:1033F0008001C001C000E00060006000700030008B
:10340000300030000000000000000000000000005C
:103410000000E003F007380E180C180C180C3806E2
:10342000F007F007180C0C180C180C180C18380CB6
:10343000F80FE003000000000000000000000000A2
:103440000000E003F007380E1C0C0C180C180C18C8
:103450001C1C381EF81BE0190018000C000C1C0E78
:10346000F807F0010000000000000000000000006C
:10347000000000000000000000000000800180014A
:10348000000000000000000000000000000000003C
:10349000800180010000000000000000000000002A
:1034A000000000000000000000000000800180011A
:1034B000000000000000000000000000000000000C
:1034C0008001800100010001800000000000000078
:1034D00000000000000000000000000000000000EC
:1034E0000010001C800FE003F8001800F800E00353
:1034F000800F001C00100000000000000000000011
:1035000000000000000000000000000000000000BB
:10351000F81F000000000000F81F0000000000007D
:10352000000000000000000000000000000000009B
:10353000000000000000000000000000000000008B
:1035400008003800F001C007001F0018001FC00766
:10355000F00138000800000000000000000000003A
:103560000000E003F80F180C0C180C180018000CE1
:10357000000600038001C000C000C0000000000081
:10358000C000C000000000000000000000000000BB
:1035900000000000E00718180420C229224A114444
:1035A00009440944094409221113E20C0240042091
:1035B0001818E007000000000000000000000000F4
:1035C000000080038003C006C006C006600C600CCB
:1035D000301830183018F83FF83F1C700C600C6041
:1035E00006C006C00000000000000000000000004F
:1035F0000000FC03FC0F0C0C0C180C180C180C0C25
:10360000FC07FC0F0C180C300C300C300C300C1874
:10361000FC1FFC070000000000000000000000008C
:103620000000C007F01F38381C300C700660060020
:103630000600060006000600060006600C701C303E
:10364000F01FE00700000000000000000000000084
:103650000000FE03FE0F060E0618061806300630A0
:103660000630063006300630063006180618060EFC
:10367000FE0FFE030000000000000000000000003C
:103680000000FC3FFC3F0C000C000C000C000C0088
:10369000FC1FFC1F0C000C000C000C000C000C00AC
:1036A000FC3FFC3F000000000000000000000000A4
:1036B0000000F83FF83F1800180018001800180024
:1036C000F81FF81F1800180018001800180018003C
:1036D00018001800000000000000000000000000BA
:1036E0000000E00FF83F3C780E6006E007C00300E2
:1036F000030003FE03FE03C007C006C00EC03CF07B
:10370000F83FE00F00000000000000000000000093
:1037100000000C300C300C300C300C300C300C3005
:10372000FC3FFC3F0C300C300C300C300C300C30BB
:103730000C300C3000000000000000000000000011
:1037400000008001800180018001800180018001F2
:103750008001800180018001800180018001800161
:103760008001800100000000000000000000000057
:10377000000000060006000600060006000600061F
:1037800000060006000600060006180618063807A0
:10379000F003E00100000000000000000000000055
:1037A000000006300618060C060606038601C60051
:1037B00066007600DE008E0106030606060C06187B
:1037C000063006600000000000000000000000005D
:1037D0000000180018001800180018001800180041
:1037E0001800180018001800180018001800180019
:1037F000F81FF81F0000000000000000000000009B
:1038000000000EE01EF01EF01EF036D836D836D876
:1038100036D866CC66CC66CCC6C6C6C6C6C6C6C6D4
:1038200086C386C300000000000000000000000006
:1038300000000C301C303C303C306C306C30CC30F4
:10384000CC308C310C330C330C360C360C3C0C3C2D
:103850000C380C30000000000000000000000000E8
:103860000000E007F81F1C380E70066003C003C09C
:1038700003C003C003C003C003C006600E701C3841
:10388000F81FE0070000000000000000000000003A
:103890000000FC0FFC1F0C380C300C300C300C30CE
:1038A0000C18FC1FFC070C000C000C000C000C009A
:1038B0000C000C00000000000000000000000000F0
:1038C0000000E007F81F1C380E70066003E003C01C
:1038D00003C003C003C003C007E006630E3F1C3CE7
:1038E000F83FE0F700C0000000000000000000000A
:1038F0000000FE0FFE1F0638063006300630063880
:10390000FE1FFE0706030606060C061806180630FC
:10391000063006600000000000000000000000000B
:103920000000E003F80F1C0C0C180C180C001C0015
:10393000F803E00F001E0038063006300E301C1C65
:10394000F80FE00700000000000000000000000089
:103950000000FE7FFE7F80018001800180018001E8
:10396000800180018001800180018001800180014F
:103970008001800100000000000000000000000045
:1039800000000C300C300C300C300C300C300C3093
:103990000C300C300C300C300C300C300C30181853
:1039A000F81FE00700000000000000000000000019
:1039B000000003600630063006300C180C180C1896
:1039C000180C180C380E30063006700760036003C0
:1039D000C001C00100000000000000000000000065
:1039E00000000360C361C361C3616633663366333D
:1039F0006633663366336C1B6C1B6C1B2C1A3C1EC7
:103A0000380E380E0000000000000000000000002A
:103A100000000FE00C7018303018700C600EC007FA
:103A200080038003C003E006700C301C18180C30B3
:103A30000E6007E000000000000000000000000031
:103A4000000003C006600C301C383818300C6006CB
:103A5000E007C003800180018001800180018001B6
:103A60008001800100000000000000000000000054
:103A70000000FC7FFC7F006000300018000C000696
:103A800000038001C0006000300018000C00060038
:103A9000FE7FFE7F0000000000000000000000002C
:103AA0000000E003E0036000600060006000600070
:103AB0006000600060006000600060006000600006
:103AC00060006000600060006000E003E003000050
:103AD000000030003000600060006000C000C000E6
:103AE000C000C001800180018001000300030003C9
:103AF00000060006000000000000000000000000BA
:103B00000000E003E00300030003000300030003E0
:103B1000000300030003000300030003000300038D
:103B200000030003000300030003E003E0030000C0
:103B300000000000C001C0016003600360033006A4
:103B40003006180C180C00000000000000000000F7
:103B50000000000000000000000000000000000065
:103B60000000000000000000000000000000000055
:103B70000000000000000000000000000000000045
:103B80000000FFFFFFFF0000000000000000000039
:103B900000000C000C000C000C000C000C000000DD
:103BA0000000000000000000000000000000000015
:103BB0000000000000000000000000000000000005
:103BC000000000000000000000000000F003F80703
:103BD0001C0C0C0C000FF00FF80C0C0C0C0C1C0F38
:103BE000F80FF018000000000000000000000000C6
:103BF000000018001800180018001800D803F80F6B
:103C0000380C181818181818181818181818380C0C
:103C1000F80FD803000000000000000000000000C2
:103C2000000000000000000000000000C003F007DA
:103C3000300E180C1800180018001800180C300E60
:103C4000F007C003000000000000000000000000BA
:103C5000000000180018001800180018C01BF01F02
:103C6000301C181818181818181818181818301C9C
:103C7000F01FC01B0000000000000000000000005A
:103C8000000000000000000000000000C003F00F72
:103C9000300C1818F81FF81F180018003818301CBE
:103CA000F00FC0070000000000000000000000004E
:103CB0000000800FC00FC000C000C000F007F00778
:103CC000C000C000C000C000C000C000C000C000F4
:103CD000C000C00000000000000000000000000064
:103CE000000000000000000000000000E00DF80FE0
:103CF000180E0C0C0C0C0C0C0C0C0C0C0C0C180EE8
:103D0000F80FE00D000C0C0C1C06F807F001000089
:103D1000000018001800180018001800D807F80F45
:103D2000381C1818181818181818181818181818EF
:103D30001818181800000000000000000000000023
:103D40000000C000C000000000000000C000C00073
:103D5000C000C000C000C000C000C000C000C00063
:103D6000C000C000000000000000000000000000D3
:103D70000000C000C000000000000000C000C00043
:103D8000C000C000C000C000C000C000C000C00033
:103D9000C000C000C000C000C000F80078000000F3
:103DA00000000C000C000C000C000C000C0C0C06AD
:103DB0000C038C01CC006C00FC009C018C030C03F8
:103DC0000C060C0C000000000000000000000000C9
:103DD0000000C000C000C000C000C000C000C000A3
:103DE000C000C000C000C000C000C000C000C000D3
:103DF000C000C00000000000000000000000000043
:103E00000000000000000000000000007C3CFF7E7D
:103E1000C7E383C183C183C183C183C183C183C11C
:103E200083C183C10000000000000000000000000A
:103E30000000000000000000000000009807F80FDC
:103E4000381C1818181818181818181818181818CE
:103E50001818181800000000000000000000000002
:103E6000000000000000000000000000C003F00F90
:103E7000300C181818181818181818181818300CAA
:103E8000F00FC00300000000000000000000000070
:103E9000000000000000000000000000D803F80F40
:103EA000380C181818181818181818181818380C6A
:103EB000F80FD803180018001800180018000000A8
:103EC000000000000000000000000000C01BF01F08
:103ED000301C181818181818181818181818301C2A
:103EE000F01FC01B00180018001800180018000070
:103EF000000000000000000000000000B007F00318
:103F000070003000300030003000300030003000F1
:103F10003000300000000000000000000000000041
:103F2000000000000000000000000000E003F003BB
:103F3000380E180C3800F003C007000C180C380EAF
:103F4000F007E00300000000000000000000000097
:103F5000000000008000C000C000C000F007F007B3
:103F6000C000C000C000C000C000C000C000C00051
:103F7000C0078007000000000000000000000000F3
:103F800000000000000000000000000018181818D1
:103F90001818181818181818181818181818381C7D
:103FA000F01FE01900000000000000000000000009
:103FB0000000000000000000000000000C18180CB9
:103FC000180C180C300630063006600360036003DE
:103FD000C001C0010000000000000000000000005F
:103FE000000000000000000000000000C141C141CD
:103FF000C3616363636363633636363636361C1CCF
:104000001C1C1C1C00000000000000000000000040
:104010000000000000000000000000001C38381CF8
:10402000300C600660036003600360036006300CC0
:10403000381C1C38000000000000000000000000D8
:1040400000000000000000000000000018303018E0
:1040500030187018600C600CE00CC006C0068003BD
:104060008003800380018001C001F0007000000027
:10407000000000000000000000000000FC1FFC1F0A
:10408000000C000600038001C00060003000180032
:10409000FC1FFC1F000000000000000000000000EA
:1040A000000000038001C000C000C000C000C000CC
:1040B000C00060006000300060004000C000C00030
:1040C000C000C000C000C00080010003000000006C
:1040D0000000800180018001800180018001800159
:1040E00080018001800180018001800180018001C8
:1040F0008001800180018001800180018001000039
:1041000000006000C000C0018001800180018001CA
:10411000800100030003000600030001800180010C
:104120008001800180018001C0006000000000006B
:10413000000000000000000000000000000000007F
:10414000F010F81F080F0000000000000000000041
:10415000000000000000000000000000000000005F
:1041600080410008000000202C0000004C2D0008B9
:10417000AC4100082C000020DC0400005C2D00088D
:10418000000000000B0000003B00000031000000B8
:104190001000000001000000000000000024F400F6
:0C41A0000000FFFF000000000000000015
:04000005080001D915
:00000001FF
